{
	"Contracts/NFTAuction.sol": {
		"NFTAuction": {
			"abi": [
				{
					"inputs": [],
					"stateMutability": "nonpayable",
					"type": "constructor"
				},
				{
					"anonymous": false,
					"inputs": [
						{
							"indexed": false,
							"internalType": "uint256",
							"name": "auctionId",
							"type": "uint256"
						},
						{
							"indexed": true,
							"internalType": "address",
							"name": "nftContract",
							"type": "address"
						},
						{
							"indexed": true,
							"internalType": "uint256",
							"name": "tokenId",
							"type": "uint256"
						},
						{
							"indexed": true,
							"internalType": "address",
							"name": "seller",
							"type": "address"
						}
					],
					"name": "AuctionCreated",
					"type": "event"
				},
				{
					"anonymous": false,
					"inputs": [
						{
							"indexed": false,
							"internalType": "uint256",
							"name": "auctionId",
							"type": "uint256"
						},
						{
							"indexed": true,
							"internalType": "address",
							"name": "winner",
							"type": "address"
						},
						{
							"indexed": true,
							"internalType": "uint256",
							"name": "winningBid",
							"type": "uint256"
						}
					],
					"name": "AuctionEnded",
					"type": "event"
				},
				{
					"anonymous": false,
					"inputs": [
						{
							"indexed": false,
							"internalType": "uint256",
							"name": "auctionId",
							"type": "uint256"
						},
						{
							"indexed": true,
							"internalType": "address",
							"name": "bidder",
							"type": "address"
						},
						{
							"indexed": false,
							"internalType": "uint256",
							"name": "bidAmount",
							"type": "uint256"
						}
					],
					"name": "BidPlaced",
					"type": "event"
				},
				{
					"inputs": [],
					"name": "auctionId",
					"outputs": [
						{
							"internalType": "uint256",
							"name": "",
							"type": "uint256"
						}
					],
					"stateMutability": "view",
					"type": "function"
				},
				{
					"inputs": [
						{
							"internalType": "uint256",
							"name": "",
							"type": "uint256"
						}
					],
					"name": "auctions",
					"outputs": [
						{
							"internalType": "address",
							"name": "nftContract",
							"type": "address"
						},
						{
							"internalType": "uint256",
							"name": "tokenId",
							"type": "uint256"
						},
						{
							"internalType": "address payable",
							"name": "seller",
							"type": "address"
						},
						{
							"internalType": "uint256",
							"name": "startPrice",
							"type": "uint256"
						},
						{
							"internalType": "uint256",
							"name": "endBlock",
							"type": "uint256"
						},
						{
							"internalType": "address payable",
							"name": "highestBidder",
							"type": "address"
						},
						{
							"internalType": "uint256",
							"name": "highestBid",
							"type": "uint256"
						},
						{
							"internalType": "bool",
							"name": "ended",
							"type": "bool"
						}
					],
					"stateMutability": "view",
					"type": "function"
				},
				{
					"inputs": [
						{
							"internalType": "address",
							"name": "_nftContract",
							"type": "address"
						},
						{
							"internalType": "uint256",
							"name": "_tokenId",
							"type": "uint256"
						},
						{
							"internalType": "uint256",
							"name": "_startPrice",
							"type": "uint256"
						},
						{
							"internalType": "uint256",
							"name": "_endBlock",
							"type": "uint256"
						}
					],
					"name": "createAuction",
					"outputs": [],
					"stateMutability": "nonpayable",
					"type": "function"
				},
				{
					"inputs": [
						{
							"internalType": "uint256",
							"name": "_auctionId",
							"type": "uint256"
						}
					],
					"name": "endAuction",
					"outputs": [],
					"stateMutability": "nonpayable",
					"type": "function"
				},
				{
					"inputs": [
						{
							"internalType": "uint256",
							"name": "_auctionId",
							"type": "uint256"
						}
					],
					"name": "getAuctionDetails",
					"outputs": [
						{
							"internalType": "address",
							"name": "",
							"type": "address"
						},
						{
							"internalType": "uint256",
							"name": "",
							"type": "uint256"
						},
						{
							"internalType": "address",
							"name": "",
							"type": "address"
						},
						{
							"internalType": "uint256",
							"name": "",
							"type": "uint256"
						},
						{
							"internalType": "uint256",
							"name": "",
							"type": "uint256"
						},
						{
							"internalType": "address",
							"name": "",
							"type": "address"
						},
						{
							"internalType": "uint256",
							"name": "",
							"type": "uint256"
						},
						{
							"internalType": "bool",
							"name": "",
							"type": "bool"
						}
					],
					"stateMutability": "view",
					"type": "function"
				},
				{
					"inputs": [],
					"name": "owner",
					"outputs": [
						{
							"internalType": "address",
							"name": "",
							"type": "address"
						}
					],
					"stateMutability": "view",
					"type": "function"
				},
				{
					"inputs": [
						{
							"internalType": "uint256",
							"name": "_auctionId",
							"type": "uint256"
						}
					],
					"name": "placeBid",
					"outputs": [],
					"stateMutability": "payable",
					"type": "function"
				}
			],
			"devdoc": {
				"kind": "dev",
				"methods": {},
				"version": 1
			},
			"evm": {
				"assembly": "    /* \"Contracts/NFTAuction.sol\":117:3625  contract NFTAuction {... */\n  mstore(0x40, 0x80)\n    /* \"Contracts/NFTAuction.sol\":939:1011  constructor() {... */\n  callvalue\n  dup1\n  iszero\n  tag_1\n  jumpi\n  0x00\n  dup1\n  revert\ntag_1:\n  pop\n    /* \"Contracts/NFTAuction.sol\":971:981  msg.sender */\n  caller\n    /* \"Contracts/NFTAuction.sol\":963:968  owner */\n  0x00\n  dup1\n    /* \"Contracts/NFTAuction.sol\":963:981  owner = msg.sender */\n  0x0100\n  exp\n  dup2\n  sload\n  dup2\n  0xffffffffffffffffffffffffffffffffffffffff\n  mul\n  not\n  and\n  swap1\n  dup4\n  0xffffffffffffffffffffffffffffffffffffffff\n  and\n  mul\n  or\n  swap1\n  sstore\n  pop\n    /* \"Contracts/NFTAuction.sol\":1003:1004  1 */\n  0x01\n    /* \"Contracts/NFTAuction.sol\":991:1000  auctionId */\n  dup1\n    /* \"Contracts/NFTAuction.sol\":991:1004  auctionId = 1 */\n  dup2\n  swap1\n  sstore\n  pop\n    /* \"Contracts/NFTAuction.sol\":117:3625  contract NFTAuction {... */\n  dataSize(sub_0)\n  dup1\n  dataOffset(sub_0)\n  0x00\n  codecopy\n  0x00\n  return\nstop\n\nsub_0: assembly {\n        /* \"Contracts/NFTAuction.sol\":117:3625  contract NFTAuction {... */\n      mstore(0x40, 0x80)\n      jumpi(tag_1, lt(calldatasize, 0x04))\n      shr(0xe0, calldataload(0x00))\n      dup1\n      0x8da5cb5b\n      gt\n      tag_9\n      jumpi\n      dup1\n      0x8da5cb5b\n      eq\n      tag_5\n      jumpi\n      dup1\n      0x9979ef45\n      eq\n      tag_6\n      jumpi\n      dup1\n      0xb9a2de3a\n      eq\n      tag_7\n      jumpi\n      dup1\n      0xf20e5e35\n      eq\n      tag_8\n      jumpi\n      jump(tag_1)\n    tag_9:\n      dup1\n      0x10782f8f\n      eq\n      tag_2\n      jumpi\n      dup1\n      0x571a26a0\n      eq\n      tag_3\n      jumpi\n      dup1\n      0x61beb1d7\n      eq\n      tag_4\n      jumpi\n    tag_1:\n      0x00\n      dup1\n      revert\n        /* \"Contracts/NFTAuction.sol\":169:193  uint256 public auctionId */\n    tag_2:\n      callvalue\n      dup1\n      iszero\n      tag_10\n      jumpi\n      0x00\n      dup1\n      revert\n    tag_10:\n      pop\n      tag_11\n      tag_12\n      jump\t// in\n    tag_11:\n      mload(0x40)\n      tag_13\n      swap2\n      swap1\n      tag_14\n      jump\t// in\n    tag_13:\n      mload(0x40)\n      dup1\n      swap2\n      sub\n      swap1\n      return\n        /* \"Contracts/NFTAuction.sol\":199:242  mapping(uint256 => Auction) public auctions */\n    tag_3:\n      callvalue\n      dup1\n      iszero\n      tag_15\n      jumpi\n      0x00\n      dup1\n      revert\n    tag_15:\n      pop\n      tag_16\n      0x04\n      dup1\n      calldatasize\n      sub\n      dup2\n      add\n      swap1\n      tag_17\n      swap2\n      swap1\n      tag_18\n      jump\t// in\n    tag_17:\n      tag_19\n      jump\t// in\n    tag_16:\n      mload(0x40)\n      tag_20\n      swap9\n      swap8\n      swap7\n      swap6\n      swap5\n      swap4\n      swap3\n      swap2\n      swap1\n      tag_21\n      jump\t// in\n    tag_20:\n      mload(0x40)\n      dup1\n      swap2\n      sub\n      swap1\n      return\n        /* \"Contracts/NFTAuction.sol\":1017:1839  function createAuction(... */\n    tag_4:\n      callvalue\n      dup1\n      iszero\n      tag_22\n      jumpi\n      0x00\n      dup1\n      revert\n    tag_22:\n      pop\n      tag_23\n      0x04\n      dup1\n      calldatasize\n      sub\n      dup2\n      add\n      swap1\n      tag_24\n      swap2\n      swap1\n      tag_25\n      jump\t// in\n    tag_24:\n      tag_26\n      jump\t// in\n    tag_23:\n      stop\n        /* \"Contracts/NFTAuction.sol\":143:163  address public owner */\n    tag_5:\n      callvalue\n      dup1\n      iszero\n      tag_27\n      jumpi\n      0x00\n      dup1\n      revert\n    tag_27:\n      pop\n      tag_28\n      tag_29\n      jump\t// in\n    tag_28:\n      mload(0x40)\n      tag_30\n      swap2\n      swap1\n      tag_31\n      jump\t// in\n    tag_30:\n      mload(0x40)\n      dup1\n      swap2\n      sub\n      swap1\n      return\n        /* \"Contracts/NFTAuction.sol\":1845:2493  function placeBid(uint256 _auctionId) external payable {... */\n    tag_6:\n      tag_32\n      0x04\n      dup1\n      calldatasize\n      sub\n      dup2\n      add\n      swap1\n      tag_33\n      swap2\n      swap1\n      tag_18\n      jump\t// in\n    tag_33:\n      tag_34\n      jump\t// in\n    tag_32:\n      stop\n        /* \"Contracts/NFTAuction.sol\":2499:3008  function endAuction(uint256 _auctionId) external {... */\n    tag_7:\n      callvalue\n      dup1\n      iszero\n      tag_35\n      jumpi\n      0x00\n      dup1\n      revert\n    tag_35:\n      pop\n      tag_36\n      0x04\n      dup1\n      calldatasize\n      sub\n      dup2\n      add\n      swap1\n      tag_37\n      swap2\n      swap1\n      tag_18\n      jump\t// in\n    tag_37:\n      tag_38\n      jump\t// in\n    tag_36:\n      stop\n        /* \"Contracts/NFTAuction.sol\":3014:3623  function getAuctionDetails(uint256 _auctionId)... */\n    tag_8:\n      callvalue\n      dup1\n      iszero\n      tag_39\n      jumpi\n      0x00\n      dup1\n      revert\n    tag_39:\n      pop\n      tag_40\n      0x04\n      dup1\n      calldatasize\n      sub\n      dup2\n      add\n      swap1\n      tag_41\n      swap2\n      swap1\n      tag_18\n      jump\t// in\n    tag_41:\n      tag_42\n      jump\t// in\n    tag_40:\n      mload(0x40)\n      tag_43\n      swap9\n      swap8\n      swap7\n      swap6\n      swap5\n      swap4\n      swap3\n      swap2\n      swap1\n      tag_44\n      jump\t// in\n    tag_43:\n      mload(0x40)\n      dup1\n      swap2\n      sub\n      swap1\n      return\n        /* \"Contracts/NFTAuction.sol\":169:193  uint256 public auctionId */\n    tag_12:\n      sload(0x01)\n      dup2\n      jump\t// out\n        /* \"Contracts/NFTAuction.sol\":199:242  mapping(uint256 => Auction) public auctions */\n    tag_19:\n      mstore(0x20, 0x02)\n      dup1\n      0x00\n      mstore\n      keccak256(0x00, 0x40)\n      0x00\n      swap2\n      pop\n      swap1\n      pop\n      dup1\n      0x00\n      add\n      0x00\n      swap1\n      sload\n      swap1\n      0x0100\n      exp\n      swap1\n      div\n      0xffffffffffffffffffffffffffffffffffffffff\n      and\n      swap1\n      dup1\n      0x01\n      add\n      sload\n      swap1\n      dup1\n      0x02\n      add\n      0x00\n      swap1\n      sload\n      swap1\n      0x0100\n      exp\n      swap1\n      div\n      0xffffffffffffffffffffffffffffffffffffffff\n      and\n      swap1\n      dup1\n      0x03\n      add\n      sload\n      swap1\n      dup1\n      0x04\n      add\n      sload\n      swap1\n      dup1\n      0x05\n      add\n      0x00\n      swap1\n      sload\n      swap1\n      0x0100\n      exp\n      swap1\n      div\n      0xffffffffffffffffffffffffffffffffffffffff\n      and\n      swap1\n      dup1\n      0x06\n      add\n      sload\n      swap1\n      dup1\n      0x07\n      add\n      0x00\n      swap1\n      sload\n      swap1\n      0x0100\n      exp\n      swap1\n      div\n      0xff\n      and\n      swap1\n      pop\n      dup9\n      jump\t// out\n        /* \"Contracts/NFTAuction.sol\":1017:1839  function createAuction(... */\n    tag_26:\n        /* \"Contracts/NFTAuction.sol\":1199:1200  0 */\n      0x00\n        /* \"Contracts/NFTAuction.sol\":1185:1196  _startPrice */\n      dup3\n        /* \"Contracts/NFTAuction.sol\":1185:1200  _startPrice > 0 */\n      gt\n        /* \"Contracts/NFTAuction.sol\":1177:1242  require(_startPrice > 0, \"Start price must be greater than zero\") */\n      tag_46\n      jumpi\n      mload(0x40)\n      0x08c379a000000000000000000000000000000000000000000000000000000000\n      dup2\n      mstore\n      0x04\n      add\n      tag_47\n      swap1\n      tag_48\n      jump\t// in\n    tag_47:\n      mload(0x40)\n      dup1\n      swap2\n      sub\n      swap1\n      revert\n    tag_46:\n        /* \"Contracts/NFTAuction.sol\":1253:1264  IERC721 nft */\n      0x00\n        /* \"Contracts/NFTAuction.sol\":1275:1287  _nftContract */\n      dup5\n        /* \"Contracts/NFTAuction.sol\":1253:1288  IERC721 nft = IERC721(_nftContract) */\n      swap1\n      pop\n        /* \"Contracts/NFTAuction.sol\":1400:1403  nft */\n      dup1\n        /* \"Contracts/NFTAuction.sol\":1400:1416  nft.transferFrom */\n      0xffffffffffffffffffffffffffffffffffffffff\n      and\n      0x23b872dd\n        /* \"Contracts/NFTAuction.sol\":1417:1427  msg.sender */\n      caller\n        /* \"Contracts/NFTAuction.sol\":1437:1441  this */\n      address\n        /* \"Contracts/NFTAuction.sol\":1444:1452  _tokenId */\n      dup8\n        /* \"Contracts/NFTAuction.sol\":1400:1453  nft.transferFrom(msg.sender, address(this), _tokenId) */\n      mload(0x40)\n      dup5\n      0xffffffff\n      and\n      0xe0\n      shl\n      dup2\n      mstore\n      0x04\n      add\n      tag_49\n      swap4\n      swap3\n      swap2\n      swap1\n      tag_50\n      jump\t// in\n    tag_49:\n      0x00\n      mload(0x40)\n      dup1\n      dup4\n      sub\n      dup2\n      0x00\n      dup8\n      dup1\n      extcodesize\n      iszero\n      dup1\n      iszero\n      tag_51\n      jumpi\n      0x00\n      dup1\n      revert\n    tag_51:\n      pop\n      gas\n      call\n      iszero\n      dup1\n      iszero\n      tag_53\n      jumpi\n      returndatasize\n      0x00\n      dup1\n      returndatacopy\n      revert(0x00, returndatasize)\n    tag_53:\n      pop\n      pop\n      pop\n      pop\n        /* \"Contracts/NFTAuction.sol\":1464:1490  Auction storage newAuction */\n      0x00\n        /* \"Contracts/NFTAuction.sol\":1493:1501  auctions */\n      0x02\n        /* \"Contracts/NFTAuction.sol\":1493:1512  auctions[auctionId] */\n      0x00\n        /* \"Contracts/NFTAuction.sol\":1502:1511  auctionId */\n      sload(0x01)\n        /* \"Contracts/NFTAuction.sol\":1493:1512  auctions[auctionId] */\n      dup2\n      mstore\n      0x20\n      add\n      swap1\n      dup2\n      mstore\n      0x20\n      add\n      0x00\n      keccak256\n        /* \"Contracts/NFTAuction.sol\":1464:1512  Auction storage newAuction = auctions[auctionId] */\n      swap1\n      pop\n        /* \"Contracts/NFTAuction.sol\":1547:1559  _nftContract */\n      dup6\n        /* \"Contracts/NFTAuction.sol\":1522:1532  newAuction */\n      dup2\n        /* \"Contracts/NFTAuction.sol\":1522:1544  newAuction.nftContract */\n      0x00\n      add\n      0x00\n        /* \"Contracts/NFTAuction.sol\":1522:1559  newAuction.nftContract = _nftContract */\n      0x0100\n      exp\n      dup2\n      sload\n      dup2\n      0xffffffffffffffffffffffffffffffffffffffff\n      mul\n      not\n      and\n      swap1\n      dup4\n      0xffffffffffffffffffffffffffffffffffffffff\n      and\n      mul\n      or\n      swap1\n      sstore\n      pop\n        /* \"Contracts/NFTAuction.sol\":1590:1598  _tokenId */\n      dup5\n        /* \"Contracts/NFTAuction.sol\":1569:1579  newAuction */\n      dup2\n        /* \"Contracts/NFTAuction.sol\":1569:1587  newAuction.tokenId */\n      0x01\n      add\n        /* \"Contracts/NFTAuction.sol\":1569:1598  newAuction.tokenId = _tokenId */\n      dup2\n      swap1\n      sstore\n      pop\n        /* \"Contracts/NFTAuction.sol\":1636:1646  msg.sender */\n      caller\n        /* \"Contracts/NFTAuction.sol\":1608:1618  newAuction */\n      dup2\n        /* \"Contracts/NFTAuction.sol\":1608:1625  newAuction.seller */\n      0x02\n      add\n      0x00\n        /* \"Contracts/NFTAuction.sol\":1608:1647  newAuction.seller = payable(msg.sender) */\n      0x0100\n      exp\n      dup2\n      sload\n      dup2\n      0xffffffffffffffffffffffffffffffffffffffff\n      mul\n      not\n      and\n      swap1\n      dup4\n      0xffffffffffffffffffffffffffffffffffffffff\n      and\n      mul\n      or\n      swap1\n      sstore\n      pop\n        /* \"Contracts/NFTAuction.sol\":1681:1692  _startPrice */\n      dup4\n        /* \"Contracts/NFTAuction.sol\":1657:1667  newAuction */\n      dup2\n        /* \"Contracts/NFTAuction.sol\":1657:1678  newAuction.startPrice */\n      0x03\n      add\n        /* \"Contracts/NFTAuction.sol\":1657:1692  newAuction.startPrice = _startPrice */\n      dup2\n      swap1\n      sstore\n      pop\n        /* \"Contracts/NFTAuction.sol\":1724:1733  _endBlock */\n      dup3\n        /* \"Contracts/NFTAuction.sol\":1702:1712  newAuction */\n      dup2\n        /* \"Contracts/NFTAuction.sol\":1702:1721  newAuction.endBlock */\n      0x04\n      add\n        /* \"Contracts/NFTAuction.sol\":1702:1733  newAuction.endBlock = _endBlock */\n      dup2\n      swap1\n      sstore\n      pop\n        /* \"Contracts/NFTAuction.sol\":1799:1809  msg.sender */\n      caller\n        /* \"Contracts/NFTAuction.sol\":1749:1810  AuctionCreated(auctionId, _nftContract, _tokenId, msg.sender) */\n      0xffffffffffffffffffffffffffffffffffffffff\n      and\n        /* \"Contracts/NFTAuction.sol\":1789:1797  _tokenId */\n      dup6\n        /* \"Contracts/NFTAuction.sol\":1775:1787  _nftContract */\n      dup8\n        /* \"Contracts/NFTAuction.sol\":1749:1810  AuctionCreated(auctionId, _nftContract, _tokenId, msg.sender) */\n      0xffffffffffffffffffffffffffffffffffffffff\n      and\n      0x6d2fe54cbc40a66ebc27386848d449a691423e6867883635ffe7b9cfa9d77e0a\n        /* \"Contracts/NFTAuction.sol\":1764:1773  auctionId */\n      sload(0x01)\n        /* \"Contracts/NFTAuction.sol\":1749:1810  AuctionCreated(auctionId, _nftContract, _tokenId, msg.sender) */\n      mload(0x40)\n      tag_54\n      swap2\n      swap1\n      tag_14\n      jump\t// in\n    tag_54:\n      mload(0x40)\n      dup1\n      swap2\n      sub\n      swap1\n      log4\n        /* \"Contracts/NFTAuction.sol\":1821:1830  auctionId */\n      0x01\n      0x00\n        /* \"Contracts/NFTAuction.sol\":1821:1832  auctionId++ */\n      dup2\n      sload\n      dup1\n      swap3\n      swap2\n      swap1\n      tag_55\n      swap1\n      tag_56\n      jump\t// in\n    tag_55:\n      swap2\n      swap1\n      pop\n      sstore\n      pop\n        /* \"Contracts/NFTAuction.sol\":1167:1839  {... */\n      pop\n      pop\n        /* \"Contracts/NFTAuction.sol\":1017:1839  function createAuction(... */\n      pop\n      pop\n      pop\n      pop\n      jump\t// out\n        /* \"Contracts/NFTAuction.sol\":143:163  address public owner */\n    tag_29:\n      0x00\n      dup1\n      sload\n      swap1\n      0x0100\n      exp\n      swap1\n      div\n      0xffffffffffffffffffffffffffffffffffffffff\n      and\n      dup2\n      jump\t// out\n        /* \"Contracts/NFTAuction.sol\":1845:2493  function placeBid(uint256 _auctionId) external payable {... */\n    tag_34:\n        /* \"Contracts/NFTAuction.sol\":1910:1933  Auction storage auction */\n      0x00\n        /* \"Contracts/NFTAuction.sol\":1936:1944  auctions */\n      0x02\n        /* \"Contracts/NFTAuction.sol\":1936:1956  auctions[_auctionId] */\n      0x00\n        /* \"Contracts/NFTAuction.sol\":1945:1955  _auctionId */\n      dup4\n        /* \"Contracts/NFTAuction.sol\":1936:1956  auctions[_auctionId] */\n      dup2\n      mstore\n      0x20\n      add\n      swap1\n      dup2\n      mstore\n      0x20\n      add\n      0x00\n      keccak256\n        /* \"Contracts/NFTAuction.sol\":1910:1956  Auction storage auction = auctions[_auctionId] */\n      swap1\n      pop\n        /* \"Contracts/NFTAuction.sol\":1975:1982  auction */\n      dup1\n        /* \"Contracts/NFTAuction.sol\":1975:1988  auction.ended */\n      0x07\n      add\n      0x00\n      swap1\n      sload\n      swap1\n      0x0100\n      exp\n      swap1\n      div\n      0xff\n      and\n        /* \"Contracts/NFTAuction.sol\":1974:1988  !auction.ended */\n      iszero\n        /* \"Contracts/NFTAuction.sol\":1966:2014  require(!auction.ended, \"The auction has ended\") */\n      tag_58\n      jumpi\n      mload(0x40)\n      0x08c379a000000000000000000000000000000000000000000000000000000000\n      dup2\n      mstore\n      0x04\n      add\n      tag_59\n      swap1\n      tag_60\n      jump\t// in\n    tag_59:\n      mload(0x40)\n      dup1\n      swap2\n      sub\n      swap1\n      revert\n    tag_58:\n        /* \"Contracts/NFTAuction.sol\":2048:2055  auction */\n      dup1\n        /* \"Contracts/NFTAuction.sol\":2048:2064  auction.endBlock */\n      0x04\n      add\n      sload\n        /* \"Contracts/NFTAuction.sol\":2032:2044  block.number */\n      number\n        /* \"Contracts/NFTAuction.sol\":2032:2064  block.number <= auction.endBlock */\n      gt\n      iszero\n        /* \"Contracts/NFTAuction.sol\":2024:2098  require(block.number <= auction.endBlock, \"The auction has already ended\") */\n      tag_61\n      jumpi\n      mload(0x40)\n      0x08c379a000000000000000000000000000000000000000000000000000000000\n      dup2\n      mstore\n      0x04\n      add\n      tag_62\n      swap1\n      tag_63\n      jump\t// in\n    tag_62:\n      mload(0x40)\n      dup1\n      swap2\n      sub\n      swap1\n      revert\n    tag_61:\n        /* \"Contracts/NFTAuction.sol\":2129:2136  auction */\n      dup1\n        /* \"Contracts/NFTAuction.sol\":2129:2147  auction.highestBid */\n      0x06\n      add\n      sload\n        /* \"Contracts/NFTAuction.sol\":2117:2126  msg.value */\n      callvalue\n        /* \"Contracts/NFTAuction.sol\":2117:2147  msg.value > auction.highestBid */\n      gt\n        /* \"Contracts/NFTAuction.sol\":2109:2206  require(msg.value > auction.highestBid, \"Bid amount must be higher than the current highest bid\") */\n      tag_64\n      jumpi\n      mload(0x40)\n      0x08c379a000000000000000000000000000000000000000000000000000000000\n      dup2\n      mstore\n      0x04\n      add\n      tag_65\n      swap1\n      tag_66\n      jump\t// in\n    tag_65:\n      mload(0x40)\n      dup1\n      swap2\n      sub\n      swap1\n      revert\n    tag_64:\n        /* \"Contracts/NFTAuction.sol\":2254:2255  0 */\n      0x00\n        /* \"Contracts/NFTAuction.sol\":2221:2256  auction.highestBidder != address(0) */\n      0xffffffffffffffffffffffffffffffffffffffff\n      and\n        /* \"Contracts/NFTAuction.sol\":2221:2228  auction */\n      dup2\n        /* \"Contracts/NFTAuction.sol\":2221:2242  auction.highestBidder */\n      0x05\n      add\n      0x00\n      swap1\n      sload\n      swap1\n      0x0100\n      exp\n      swap1\n      div\n      0xffffffffffffffffffffffffffffffffffffffff\n      and\n        /* \"Contracts/NFTAuction.sol\":2221:2256  auction.highestBidder != address(0) */\n      0xffffffffffffffffffffffffffffffffffffffff\n      and\n      eq\n        /* \"Contracts/NFTAuction.sol\":2217:2333  if (auction.highestBidder != address(0)) {... */\n      tag_67\n      jumpi\n        /* \"Contracts/NFTAuction.sol\":2272:2279  auction */\n      dup1\n        /* \"Contracts/NFTAuction.sol\":2272:2293  auction.highestBidder */\n      0x05\n      add\n      0x00\n      swap1\n      sload\n      swap1\n      0x0100\n      exp\n      swap1\n      div\n      0xffffffffffffffffffffffffffffffffffffffff\n      and\n        /* \"Contracts/NFTAuction.sol\":2272:2302  auction.highestBidder.transfer */\n      0xffffffffffffffffffffffffffffffffffffffff\n      and\n        /* \"Contracts/NFTAuction.sol\":2272:2322  auction.highestBidder.transfer(auction.highestBid) */\n      0x08fc\n        /* \"Contracts/NFTAuction.sol\":2303:2310  auction */\n      dup3\n        /* \"Contracts/NFTAuction.sol\":2303:2321  auction.highestBid */\n      0x06\n      add\n      sload\n        /* \"Contracts/NFTAuction.sol\":2272:2322  auction.highestBidder.transfer(auction.highestBid) */\n      swap1\n      dup2\n      iszero\n      mul\n      swap1\n      mload(0x40)\n      0x00\n      mload(0x40)\n      dup1\n      dup4\n      sub\n      dup2\n      dup6\n      dup9\n      dup9\n      call\n      swap4\n      pop\n      pop\n      pop\n      pop\n      iszero\n      dup1\n      iszero\n      tag_69\n      jumpi\n      returndatasize\n      0x00\n      dup1\n      returndatacopy\n      revert(0x00, returndatasize)\n    tag_69:\n      pop\n        /* \"Contracts/NFTAuction.sol\":2217:2333  if (auction.highestBidder != address(0)) {... */\n    tag_67:\n        /* \"Contracts/NFTAuction.sol\":2375:2385  msg.sender */\n      caller\n        /* \"Contracts/NFTAuction.sol\":2343:2350  auction */\n      dup2\n        /* \"Contracts/NFTAuction.sol\":2343:2364  auction.highestBidder */\n      0x05\n      add\n      0x00\n        /* \"Contracts/NFTAuction.sol\":2343:2386  auction.highestBidder = payable(msg.sender) */\n      0x0100\n      exp\n      dup2\n      sload\n      dup2\n      0xffffffffffffffffffffffffffffffffffffffff\n      mul\n      not\n      and\n      swap1\n      dup4\n      0xffffffffffffffffffffffffffffffffffffffff\n      and\n      mul\n      or\n      swap1\n      sstore\n      pop\n        /* \"Contracts/NFTAuction.sol\":2417:2426  msg.value */\n      callvalue\n        /* \"Contracts/NFTAuction.sol\":2396:2403  auction */\n      dup2\n        /* \"Contracts/NFTAuction.sol\":2396:2414  auction.highestBid */\n      0x06\n      add\n        /* \"Contracts/NFTAuction.sol\":2396:2426  auction.highestBid = msg.value */\n      dup2\n      swap1\n      sstore\n      pop\n        /* \"Contracts/NFTAuction.sol\":2464:2474  msg.sender */\n      caller\n        /* \"Contracts/NFTAuction.sol\":2442:2486  BidPlaced(_auctionId, msg.sender, msg.value) */\n      0xffffffffffffffffffffffffffffffffffffffff\n      and\n      0x0e54eff26401bf69b81b26f60bd85ef47f5d85275c1d268d84f68d6897431c47\n        /* \"Contracts/NFTAuction.sol\":2452:2462  _auctionId */\n      dup4\n        /* \"Contracts/NFTAuction.sol\":2476:2485  msg.value */\n      callvalue\n        /* \"Contracts/NFTAuction.sol\":2442:2486  BidPlaced(_auctionId, msg.sender, msg.value) */\n      mload(0x40)\n      tag_70\n      swap3\n      swap2\n      swap1\n      tag_71\n      jump\t// in\n    tag_70:\n      mload(0x40)\n      dup1\n      swap2\n      sub\n      swap1\n      log2\n        /* \"Contracts/NFTAuction.sol\":1900:2493  {... */\n      pop\n        /* \"Contracts/NFTAuction.sol\":1845:2493  function placeBid(uint256 _auctionId) external payable {... */\n      pop\n      jump\t// out\n        /* \"Contracts/NFTAuction.sol\":2499:3008  function endAuction(uint256 _auctionId) external {... */\n    tag_38:\n        /* \"Contracts/NFTAuction.sol\":2558:2581  Auction storage auction */\n      0x00\n        /* \"Contracts/NFTAuction.sol\":2584:2592  auctions */\n      0x02\n        /* \"Contracts/NFTAuction.sol\":2584:2604  auctions[_auctionId] */\n      0x00\n        /* \"Contracts/NFTAuction.sol\":2593:2603  _auctionId */\n      dup4\n        /* \"Contracts/NFTAuction.sol\":2584:2604  auctions[_auctionId] */\n      dup2\n      mstore\n      0x20\n      add\n      swap1\n      dup2\n      mstore\n      0x20\n      add\n      0x00\n      keccak256\n        /* \"Contracts/NFTAuction.sol\":2558:2604  Auction storage auction = auctions[_auctionId] */\n      swap1\n      pop\n        /* \"Contracts/NFTAuction.sol\":2623:2630  auction */\n      dup1\n        /* \"Contracts/NFTAuction.sol\":2623:2636  auction.ended */\n      0x07\n      add\n      0x00\n      swap1\n      sload\n      swap1\n      0x0100\n      exp\n      swap1\n      div\n      0xff\n      and\n        /* \"Contracts/NFTAuction.sol\":2622:2636  !auction.ended */\n      iszero\n        /* \"Contracts/NFTAuction.sol\":2614:2670  require(!auction.ended, \"The auction has already ended\") */\n      tag_73\n      jumpi\n      mload(0x40)\n      0x08c379a000000000000000000000000000000000000000000000000000000000\n      dup2\n      mstore\n      0x04\n      add\n      tag_74\n      swap1\n      tag_63\n      jump\t// in\n    tag_74:\n      mload(0x40)\n      dup1\n      swap2\n      sub\n      swap1\n      revert\n    tag_73:\n        /* \"Contracts/NFTAuction.sol\":2703:2710  auction */\n      dup1\n        /* \"Contracts/NFTAuction.sol\":2703:2719  auction.endBlock */\n      0x04\n      add\n      sload\n        /* \"Contracts/NFTAuction.sol\":2688:2700  block.number */\n      number\n        /* \"Contracts/NFTAuction.sol\":2688:2719  block.number > auction.endBlock */\n      gt\n        /* \"Contracts/NFTAuction.sol\":2680:2753  require(block.number > auction.endBlock, \"The auction has not ended yet\") */\n      tag_75\n      jumpi\n      mload(0x40)\n      0x08c379a000000000000000000000000000000000000000000000000000000000\n      dup2\n      mstore\n      0x04\n      add\n      tag_76\n      swap1\n      tag_77\n      jump\t// in\n    tag_76:\n      mload(0x40)\n      dup1\n      swap2\n      sub\n      swap1\n      revert\n    tag_75:\n        /* \"Contracts/NFTAuction.sol\":2780:2784  true */\n      0x01\n        /* \"Contracts/NFTAuction.sol\":2764:2771  auction */\n      dup2\n        /* \"Contracts/NFTAuction.sol\":2764:2777  auction.ended */\n      0x07\n      add\n      0x00\n        /* \"Contracts/NFTAuction.sol\":2764:2784  auction.ended = true */\n      0x0100\n      exp\n      dup2\n      sload\n      dup2\n      0xff\n      mul\n      not\n      and\n      swap1\n      dup4\n      iszero\n      iszero\n      mul\n      or\n      swap1\n      sstore\n      pop\n        /* \"Contracts/NFTAuction.sol\":2795:2806  IERC721 nft */\n      0x00\n        /* \"Contracts/NFTAuction.sol\":2817:2824  auction */\n      dup2\n        /* \"Contracts/NFTAuction.sol\":2817:2836  auction.nftContract */\n      0x00\n      add\n      0x00\n      swap1\n      sload\n      swap1\n      0x0100\n      exp\n      swap1\n      div\n      0xffffffffffffffffffffffffffffffffffffffff\n      and\n        /* \"Contracts/NFTAuction.sol\":2795:2837  IERC721 nft = IERC721(auction.nftContract) */\n      swap1\n      pop\n        /* \"Contracts/NFTAuction.sol\":2847:2850  nft */\n      dup1\n        /* \"Contracts/NFTAuction.sol\":2847:2863  nft.transferFrom */\n      0xffffffffffffffffffffffffffffffffffffffff\n      and\n      0x23b872dd\n        /* \"Contracts/NFTAuction.sol\":2872:2876  this */\n      address\n        /* \"Contracts/NFTAuction.sol\":2879:2886  auction */\n      dup5\n        /* \"Contracts/NFTAuction.sol\":2879:2900  auction.highestBidder */\n      0x05\n      add\n      0x00\n      swap1\n      sload\n      swap1\n      0x0100\n      exp\n      swap1\n      div\n      0xffffffffffffffffffffffffffffffffffffffff\n      and\n        /* \"Contracts/NFTAuction.sol\":2902:2909  auction */\n      dup6\n        /* \"Contracts/NFTAuction.sol\":2902:2917  auction.tokenId */\n      0x01\n      add\n      sload\n        /* \"Contracts/NFTAuction.sol\":2847:2918  nft.transferFrom(address(this), auction.highestBidder, auction.tokenId) */\n      mload(0x40)\n      dup5\n      0xffffffff\n      and\n      0xe0\n      shl\n      dup2\n      mstore\n      0x04\n      add\n      tag_78\n      swap4\n      swap3\n      swap2\n      swap1\n      tag_79\n      jump\t// in\n    tag_78:\n      0x00\n      mload(0x40)\n      dup1\n      dup4\n      sub\n      dup2\n      0x00\n      dup8\n      dup1\n      extcodesize\n      iszero\n      dup1\n      iszero\n      tag_80\n      jumpi\n      0x00\n      dup1\n      revert\n    tag_80:\n      pop\n      gas\n      call\n      iszero\n      dup1\n      iszero\n      tag_82\n      jumpi\n      returndatasize\n      0x00\n      dup1\n      returndatacopy\n      revert(0x00, returndatasize)\n    tag_82:\n      pop\n      pop\n      pop\n      pop\n        /* \"Contracts/NFTAuction.sol\":2982:2989  auction */\n      dup2\n        /* \"Contracts/NFTAuction.sol\":2982:3000  auction.highestBid */\n      0x06\n      add\n      sload\n        /* \"Contracts/NFTAuction.sol\":2959:2966  auction */\n      dup3\n        /* \"Contracts/NFTAuction.sol\":2959:2980  auction.highestBidder */\n      0x05\n      add\n      0x00\n      swap1\n      sload\n      swap1\n      0x0100\n      exp\n      swap1\n      div\n      0xffffffffffffffffffffffffffffffffffffffff\n      and\n        /* \"Contracts/NFTAuction.sol\":2934:3001  AuctionEnded(_auctionId, auction.highestBidder, auction.highestBid) */\n      0xffffffffffffffffffffffffffffffffffffffff\n      and\n      0xd2aa34a4fdbbc6dff6a3e56f46e0f3ae2a31d7785ff3487aa5c95c642acea501\n        /* \"Contracts/NFTAuction.sol\":2947:2957  _auctionId */\n      dup6\n        /* \"Contracts/NFTAuction.sol\":2934:3001  AuctionEnded(_auctionId, auction.highestBidder, auction.highestBid) */\n      mload(0x40)\n      tag_83\n      swap2\n      swap1\n      tag_14\n      jump\t// in\n    tag_83:\n      mload(0x40)\n      dup1\n      swap2\n      sub\n      swap1\n      log3\n        /* \"Contracts/NFTAuction.sol\":2548:3008  {... */\n      pop\n      pop\n        /* \"Contracts/NFTAuction.sol\":2499:3008  function endAuction(uint256 _auctionId) external {... */\n      pop\n      jump\t// out\n        /* \"Contracts/NFTAuction.sol\":3014:3623  function getAuctionDetails(uint256 _auctionId)... */\n    tag_42:\n        /* \"Contracts/NFTAuction.sol\":3121:3128  address */\n      0x00\n        /* \"Contracts/NFTAuction.sol\":3142:3149  uint256 */\n      dup1\n        /* \"Contracts/NFTAuction.sol\":3163:3170  address */\n      0x00\n        /* \"Contracts/NFTAuction.sol\":3184:3191  uint256 */\n      dup1\n        /* \"Contracts/NFTAuction.sol\":3205:3212  uint256 */\n      0x00\n        /* \"Contracts/NFTAuction.sol\":3226:3233  address */\n      dup1\n        /* \"Contracts/NFTAuction.sol\":3247:3254  uint256 */\n      0x00\n        /* \"Contracts/NFTAuction.sol\":3268:3272  bool */\n      dup1\n        /* \"Contracts/NFTAuction.sol\":3297:3320  Auction storage auction */\n      0x00\n        /* \"Contracts/NFTAuction.sol\":3323:3331  auctions */\n      0x02\n        /* \"Contracts/NFTAuction.sol\":3323:3343  auctions[_auctionId] */\n      0x00\n        /* \"Contracts/NFTAuction.sol\":3332:3342  _auctionId */\n      dup12\n        /* \"Contracts/NFTAuction.sol\":3323:3343  auctions[_auctionId] */\n      dup2\n      mstore\n      0x20\n      add\n      swap1\n      dup2\n      mstore\n      0x20\n      add\n      0x00\n      keccak256\n        /* \"Contracts/NFTAuction.sol\":3297:3343  Auction storage auction = auctions[_auctionId] */\n      swap1\n      pop\n        /* \"Contracts/NFTAuction.sol\":3374:3381  auction */\n      dup1\n        /* \"Contracts/NFTAuction.sol\":3374:3393  auction.nftContract */\n      0x00\n      add\n      0x00\n      swap1\n      sload\n      swap1\n      0x0100\n      exp\n      swap1\n      div\n      0xffffffffffffffffffffffffffffffffffffffff\n      and\n        /* \"Contracts/NFTAuction.sol\":3407:3414  auction */\n      dup2\n        /* \"Contracts/NFTAuction.sol\":3407:3422  auction.tokenId */\n      0x01\n      add\n      sload\n        /* \"Contracts/NFTAuction.sol\":3436:3443  auction */\n      dup3\n        /* \"Contracts/NFTAuction.sol\":3436:3450  auction.seller */\n      0x02\n      add\n      0x00\n      swap1\n      sload\n      swap1\n      0x0100\n      exp\n      swap1\n      div\n      0xffffffffffffffffffffffffffffffffffffffff\n      and\n        /* \"Contracts/NFTAuction.sol\":3464:3471  auction */\n      dup4\n        /* \"Contracts/NFTAuction.sol\":3464:3482  auction.startPrice */\n      0x03\n      add\n      sload\n        /* \"Contracts/NFTAuction.sol\":3496:3503  auction */\n      dup5\n        /* \"Contracts/NFTAuction.sol\":3496:3512  auction.endBlock */\n      0x04\n      add\n      sload\n        /* \"Contracts/NFTAuction.sol\":3526:3533  auction */\n      dup6\n        /* \"Contracts/NFTAuction.sol\":3526:3547  auction.highestBidder */\n      0x05\n      add\n      0x00\n      swap1\n      sload\n      swap1\n      0x0100\n      exp\n      swap1\n      div\n      0xffffffffffffffffffffffffffffffffffffffff\n      and\n        /* \"Contracts/NFTAuction.sol\":3561:3568  auction */\n      dup7\n        /* \"Contracts/NFTAuction.sol\":3561:3579  auction.highestBid */\n      0x06\n      add\n      sload\n        /* \"Contracts/NFTAuction.sol\":3593:3600  auction */\n      dup8\n        /* \"Contracts/NFTAuction.sol\":3593:3606  auction.ended */\n      0x07\n      add\n      0x00\n      swap1\n      sload\n      swap1\n      0x0100\n      exp\n      swap1\n      div\n      0xff\n      and\n        /* \"Contracts/NFTAuction.sol\":3353:3616  return (... */\n      swap9\n      pop\n      swap9\n      pop\n      swap9\n      pop\n      swap9\n      pop\n      swap9\n      pop\n      swap9\n      pop\n      swap9\n      pop\n      swap9\n      pop\n      pop\n        /* \"Contracts/NFTAuction.sol\":3014:3623  function getAuctionDetails(uint256 _auctionId)... */\n      swap2\n      swap4\n      swap6\n      swap8\n      pop\n      swap2\n      swap4\n      swap6\n      swap8\n      jump\t// out\n        /* \"#utility.yul\":7:84   */\n    tag_85:\n        /* \"#utility.yul\":44:51   */\n      0x00\n        /* \"#utility.yul\":73:78   */\n      dup2\n        /* \"#utility.yul\":62:78   */\n      swap1\n      pop\n        /* \"#utility.yul\":7:84   */\n      swap2\n      swap1\n      pop\n      jump\t// out\n        /* \"#utility.yul\":90:208   */\n    tag_86:\n        /* \"#utility.yul\":177:201   */\n      tag_121\n        /* \"#utility.yul\":195:200   */\n      dup2\n        /* \"#utility.yul\":177:201   */\n      tag_85\n      jump\t// in\n    tag_121:\n        /* \"#utility.yul\":172:175   */\n      dup3\n        /* \"#utility.yul\":165:202   */\n      mstore\n        /* \"#utility.yul\":90:208   */\n      pop\n      pop\n      jump\t// out\n        /* \"#utility.yul\":214:436   */\n    tag_14:\n        /* \"#utility.yul\":307:311   */\n      0x00\n        /* \"#utility.yul\":345:347   */\n      0x20\n        /* \"#utility.yul\":334:343   */\n      dup3\n        /* \"#utility.yul\":330:348   */\n      add\n        /* \"#utility.yul\":322:348   */\n      swap1\n      pop\n        /* \"#utility.yul\":358:429   */\n      tag_123\n        /* \"#utility.yul\":426:427   */\n      0x00\n        /* \"#utility.yul\":415:424   */\n      dup4\n        /* \"#utility.yul\":411:428   */\n      add\n        /* \"#utility.yul\":402:408   */\n      dup5\n        /* \"#utility.yul\":358:429   */\n      tag_86\n      jump\t// in\n    tag_123:\n        /* \"#utility.yul\":214:436   */\n      swap3\n      swap2\n      pop\n      pop\n      jump\t// out\n        /* \"#utility.yul\":523:640   */\n    tag_88:\n        /* \"#utility.yul\":632:633   */\n      0x00\n        /* \"#utility.yul\":629:630   */\n      dup1\n        /* \"#utility.yul\":622:634   */\n      revert\n        /* \"#utility.yul\":769:891   */\n    tag_90:\n        /* \"#utility.yul\":842:866   */\n      tag_128\n        /* \"#utility.yul\":860:865   */\n      dup2\n        /* \"#utility.yul\":842:866   */\n      tag_85\n      jump\t// in\n    tag_128:\n        /* \"#utility.yul\":835:840   */\n      dup2\n        /* \"#utility.yul\":832:867   */\n      eq\n        /* \"#utility.yul\":822:885   */\n      tag_129\n      jumpi\n        /* \"#utility.yul\":881:882   */\n      0x00\n        /* \"#utility.yul\":878:879   */\n      dup1\n        /* \"#utility.yul\":871:883   */\n      revert\n        /* \"#utility.yul\":822:885   */\n    tag_129:\n        /* \"#utility.yul\":769:891   */\n      pop\n      jump\t// out\n        /* \"#utility.yul\":897:1036   */\n    tag_91:\n        /* \"#utility.yul\":943:948   */\n      0x00\n        /* \"#utility.yul\":981:987   */\n      dup2\n        /* \"#utility.yul\":968:988   */\n      calldataload\n        /* \"#utility.yul\":959:988   */\n      swap1\n      pop\n        /* \"#utility.yul\":997:1030   */\n      tag_131\n        /* \"#utility.yul\":1024:1029   */\n      dup2\n        /* \"#utility.yul\":997:1030   */\n      tag_90\n      jump\t// in\n    tag_131:\n        /* \"#utility.yul\":897:1036   */\n      swap3\n      swap2\n      pop\n      pop\n      jump\t// out\n        /* \"#utility.yul\":1042:1371   */\n    tag_18:\n        /* \"#utility.yul\":1101:1107   */\n      0x00\n        /* \"#utility.yul\":1150:1152   */\n      0x20\n        /* \"#utility.yul\":1138:1147   */\n      dup3\n        /* \"#utility.yul\":1129:1136   */\n      dup5\n        /* \"#utility.yul\":1125:1148   */\n      sub\n        /* \"#utility.yul\":1121:1153   */\n      slt\n        /* \"#utility.yul\":1118:1237   */\n      iszero\n      tag_133\n      jumpi\n        /* \"#utility.yul\":1156:1235   */\n      tag_134\n      tag_88\n      jump\t// in\n    tag_134:\n        /* \"#utility.yul\":1118:1237   */\n    tag_133:\n        /* \"#utility.yul\":1276:1277   */\n      0x00\n        /* \"#utility.yul\":1301:1354   */\n      tag_135\n        /* \"#utility.yul\":1346:1353   */\n      dup5\n        /* \"#utility.yul\":1337:1343   */\n      dup3\n        /* \"#utility.yul\":1326:1335   */\n      dup6\n        /* \"#utility.yul\":1322:1344   */\n      add\n        /* \"#utility.yul\":1301:1354   */\n      tag_91\n      jump\t// in\n    tag_135:\n        /* \"#utility.yul\":1291:1354   */\n      swap2\n      pop\n        /* \"#utility.yul\":1247:1364   */\n      pop\n        /* \"#utility.yul\":1042:1371   */\n      swap3\n      swap2\n      pop\n      pop\n      jump\t// out\n        /* \"#utility.yul\":1377:1503   */\n    tag_92:\n        /* \"#utility.yul\":1414:1421   */\n      0x00\n        /* \"#utility.yul\":1454:1496   */\n      0xffffffffffffffffffffffffffffffffffffffff\n        /* \"#utility.yul\":1447:1452   */\n      dup3\n        /* \"#utility.yul\":1443:1497   */\n      and\n        /* \"#utility.yul\":1432:1497   */\n      swap1\n      pop\n        /* \"#utility.yul\":1377:1503   */\n      swap2\n      swap1\n      pop\n      jump\t// out\n        /* \"#utility.yul\":1509:1605   */\n    tag_93:\n        /* \"#utility.yul\":1546:1553   */\n      0x00\n        /* \"#utility.yul\":1575:1599   */\n      tag_138\n        /* \"#utility.yul\":1593:1598   */\n      dup3\n        /* \"#utility.yul\":1575:1599   */\n      tag_92\n      jump\t// in\n    tag_138:\n        /* \"#utility.yul\":1564:1599   */\n      swap1\n      pop\n        /* \"#utility.yul\":1509:1605   */\n      swap2\n      swap1\n      pop\n      jump\t// out\n        /* \"#utility.yul\":1611:1729   */\n    tag_94:\n        /* \"#utility.yul\":1698:1722   */\n      tag_140\n        /* \"#utility.yul\":1716:1721   */\n      dup2\n        /* \"#utility.yul\":1698:1722   */\n      tag_93\n      jump\t// in\n    tag_140:\n        /* \"#utility.yul\":1693:1696   */\n      dup3\n        /* \"#utility.yul\":1686:1723   */\n      mstore\n        /* \"#utility.yul\":1611:1729   */\n      pop\n      pop\n      jump\t// out\n        /* \"#utility.yul\":1735:1839   */\n    tag_95:\n        /* \"#utility.yul\":1780:1787   */\n      0x00\n        /* \"#utility.yul\":1809:1833   */\n      tag_142\n        /* \"#utility.yul\":1827:1832   */\n      dup3\n        /* \"#utility.yul\":1809:1833   */\n      tag_92\n      jump\t// in\n    tag_142:\n        /* \"#utility.yul\":1798:1833   */\n      swap1\n      pop\n        /* \"#utility.yul\":1735:1839   */\n      swap2\n      swap1\n      pop\n      jump\t// out\n        /* \"#utility.yul\":1845:1987   */\n    tag_96:\n        /* \"#utility.yul\":1948:1980   */\n      tag_144\n        /* \"#utility.yul\":1974:1979   */\n      dup2\n        /* \"#utility.yul\":1948:1980   */\n      tag_95\n      jump\t// in\n    tag_144:\n        /* \"#utility.yul\":1943:1946   */\n      dup3\n        /* \"#utility.yul\":1936:1981   */\n      mstore\n        /* \"#utility.yul\":1845:1987   */\n      pop\n      pop\n      jump\t// out\n        /* \"#utility.yul\":1993:2083   */\n    tag_97:\n        /* \"#utility.yul\":2027:2034   */\n      0x00\n        /* \"#utility.yul\":2070:2075   */\n      dup2\n        /* \"#utility.yul\":2063:2076   */\n      iszero\n        /* \"#utility.yul\":2056:2077   */\n      iszero\n        /* \"#utility.yul\":2045:2077   */\n      swap1\n      pop\n        /* \"#utility.yul\":1993:2083   */\n      swap2\n      swap1\n      pop\n      jump\t// out\n        /* \"#utility.yul\":2089:2198   */\n    tag_98:\n        /* \"#utility.yul\":2170:2191   */\n      tag_147\n        /* \"#utility.yul\":2185:2190   */\n      dup2\n        /* \"#utility.yul\":2170:2191   */\n      tag_97\n      jump\t// in\n    tag_147:\n        /* \"#utility.yul\":2165:2168   */\n      dup3\n        /* \"#utility.yul\":2158:2192   */\n      mstore\n        /* \"#utility.yul\":2089:2198   */\n      pop\n      pop\n      jump\t// out\n        /* \"#utility.yul\":2204:3253   */\n    tag_21:\n        /* \"#utility.yul\":2519:2523   */\n      0x00\n        /* \"#utility.yul\":2557:2560   */\n      0x0100\n        /* \"#utility.yul\":2546:2555   */\n      dup3\n        /* \"#utility.yul\":2542:2561   */\n      add\n        /* \"#utility.yul\":2534:2561   */\n      swap1\n      pop\n        /* \"#utility.yul\":2571:2642   */\n      tag_149\n        /* \"#utility.yul\":2639:2640   */\n      0x00\n        /* \"#utility.yul\":2628:2637   */\n      dup4\n        /* \"#utility.yul\":2624:2641   */\n      add\n        /* \"#utility.yul\":2615:2621   */\n      dup12\n        /* \"#utility.yul\":2571:2642   */\n      tag_94\n      jump\t// in\n    tag_149:\n        /* \"#utility.yul\":2652:2724   */\n      tag_150\n        /* \"#utility.yul\":2720:2722   */\n      0x20\n        /* \"#utility.yul\":2709:2718   */\n      dup4\n        /* \"#utility.yul\":2705:2723   */\n      add\n        /* \"#utility.yul\":2696:2702   */\n      dup11\n        /* \"#utility.yul\":2652:2724   */\n      tag_86\n      jump\t// in\n    tag_150:\n        /* \"#utility.yul\":2734:2822   */\n      tag_151\n        /* \"#utility.yul\":2818:2820   */\n      0x40\n        /* \"#utility.yul\":2807:2816   */\n      dup4\n        /* \"#utility.yul\":2803:2821   */\n      add\n        /* \"#utility.yul\":2794:2800   */\n      dup10\n        /* \"#utility.yul\":2734:2822   */\n      tag_96\n      jump\t// in\n    tag_151:\n        /* \"#utility.yul\":2832:2904   */\n      tag_152\n        /* \"#utility.yul\":2900:2902   */\n      0x60\n        /* \"#utility.yul\":2889:2898   */\n      dup4\n        /* \"#utility.yul\":2885:2903   */\n      add\n        /* \"#utility.yul\":2876:2882   */\n      dup9\n        /* \"#utility.yul\":2832:2904   */\n      tag_86\n      jump\t// in\n    tag_152:\n        /* \"#utility.yul\":2914:2987   */\n      tag_153\n        /* \"#utility.yul\":2982:2985   */\n      0x80\n        /* \"#utility.yul\":2971:2980   */\n      dup4\n        /* \"#utility.yul\":2967:2986   */\n      add\n        /* \"#utility.yul\":2958:2964   */\n      dup8\n        /* \"#utility.yul\":2914:2987   */\n      tag_86\n      jump\t// in\n    tag_153:\n        /* \"#utility.yul\":2997:3086   */\n      tag_154\n        /* \"#utility.yul\":3081:3084   */\n      0xa0\n        /* \"#utility.yul\":3070:3079   */\n      dup4\n        /* \"#utility.yul\":3066:3085   */\n      add\n        /* \"#utility.yul\":3057:3063   */\n      dup7\n        /* \"#utility.yul\":2997:3086   */\n      tag_96\n      jump\t// in\n    tag_154:\n        /* \"#utility.yul\":3096:3169   */\n      tag_155\n        /* \"#utility.yul\":3164:3167   */\n      0xc0\n        /* \"#utility.yul\":3153:3162   */\n      dup4\n        /* \"#utility.yul\":3149:3168   */\n      add\n        /* \"#utility.yul\":3140:3146   */\n      dup6\n        /* \"#utility.yul\":3096:3169   */\n      tag_86\n      jump\t// in\n    tag_155:\n        /* \"#utility.yul\":3179:3246   */\n      tag_156\n        /* \"#utility.yul\":3241:3244   */\n      0xe0\n        /* \"#utility.yul\":3230:3239   */\n      dup4\n        /* \"#utility.yul\":3226:3245   */\n      add\n        /* \"#utility.yul\":3217:3223   */\n      dup5\n        /* \"#utility.yul\":3179:3246   */\n      tag_98\n      jump\t// in\n    tag_156:\n        /* \"#utility.yul\":2204:3253   */\n      swap10\n      swap9\n      pop\n      pop\n      pop\n      pop\n      pop\n      pop\n      pop\n      pop\n      pop\n      jump\t// out\n        /* \"#utility.yul\":3259:3381   */\n    tag_99:\n        /* \"#utility.yul\":3332:3356   */\n      tag_158\n        /* \"#utility.yul\":3350:3355   */\n      dup2\n        /* \"#utility.yul\":3332:3356   */\n      tag_93\n      jump\t// in\n    tag_158:\n        /* \"#utility.yul\":3325:3330   */\n      dup2\n        /* \"#utility.yul\":3322:3357   */\n      eq\n        /* \"#utility.yul\":3312:3375   */\n      tag_159\n      jumpi\n        /* \"#utility.yul\":3371:3372   */\n      0x00\n        /* \"#utility.yul\":3368:3369   */\n      dup1\n        /* \"#utility.yul\":3361:3373   */\n      revert\n        /* \"#utility.yul\":3312:3375   */\n    tag_159:\n        /* \"#utility.yul\":3259:3381   */\n      pop\n      jump\t// out\n        /* \"#utility.yul\":3387:3526   */\n    tag_100:\n        /* \"#utility.yul\":3433:3438   */\n      0x00\n        /* \"#utility.yul\":3471:3477   */\n      dup2\n        /* \"#utility.yul\":3458:3478   */\n      calldataload\n        /* \"#utility.yul\":3449:3478   */\n      swap1\n      pop\n        /* \"#utility.yul\":3487:3520   */\n      tag_161\n        /* \"#utility.yul\":3514:3519   */\n      dup2\n        /* \"#utility.yul\":3487:3520   */\n      tag_99\n      jump\t// in\n    tag_161:\n        /* \"#utility.yul\":3387:3526   */\n      swap3\n      swap2\n      pop\n      pop\n      jump\t// out\n        /* \"#utility.yul\":3532:4297   */\n    tag_25:\n        /* \"#utility.yul\":3618:3624   */\n      0x00\n        /* \"#utility.yul\":3626:3632   */\n      dup1\n        /* \"#utility.yul\":3634:3640   */\n      0x00\n        /* \"#utility.yul\":3642:3648   */\n      dup1\n        /* \"#utility.yul\":3691:3694   */\n      0x80\n        /* \"#utility.yul\":3679:3688   */\n      dup6\n        /* \"#utility.yul\":3670:3677   */\n      dup8\n        /* \"#utility.yul\":3666:3689   */\n      sub\n        /* \"#utility.yul\":3662:3695   */\n      slt\n        /* \"#utility.yul\":3659:3779   */\n      iszero\n      tag_163\n      jumpi\n        /* \"#utility.yul\":3698:3777   */\n      tag_164\n      tag_88\n      jump\t// in\n    tag_164:\n        /* \"#utility.yul\":3659:3779   */\n    tag_163:\n        /* \"#utility.yul\":3818:3819   */\n      0x00\n        /* \"#utility.yul\":3843:3896   */\n      tag_165\n        /* \"#utility.yul\":3888:3895   */\n      dup8\n        /* \"#utility.yul\":3879:3885   */\n      dup3\n        /* \"#utility.yul\":3868:3877   */\n      dup9\n        /* \"#utility.yul\":3864:3886   */\n      add\n        /* \"#utility.yul\":3843:3896   */\n      tag_100\n      jump\t// in\n    tag_165:\n        /* \"#utility.yul\":3833:3896   */\n      swap5\n      pop\n        /* \"#utility.yul\":3789:3906   */\n      pop\n        /* \"#utility.yul\":3945:3947   */\n      0x20\n        /* \"#utility.yul\":3971:4024   */\n      tag_166\n        /* \"#utility.yul\":4016:4023   */\n      dup8\n        /* \"#utility.yul\":4007:4013   */\n      dup3\n        /* \"#utility.yul\":3996:4005   */\n      dup9\n        /* \"#utility.yul\":3992:4014   */\n      add\n        /* \"#utility.yul\":3971:4024   */\n      tag_91\n      jump\t// in\n    tag_166:\n        /* \"#utility.yul\":3961:4024   */\n      swap4\n      pop\n        /* \"#utility.yul\":3916:4034   */\n      pop\n        /* \"#utility.yul\":4073:4075   */\n      0x40\n        /* \"#utility.yul\":4099:4152   */\n      tag_167\n        /* \"#utility.yul\":4144:4151   */\n      dup8\n        /* \"#utility.yul\":4135:4141   */\n      dup3\n        /* \"#utility.yul\":4124:4133   */\n      dup9\n        /* \"#utility.yul\":4120:4142   */\n      add\n        /* \"#utility.yul\":4099:4152   */\n      tag_91\n      jump\t// in\n    tag_167:\n        /* \"#utility.yul\":4089:4152   */\n      swap3\n      pop\n        /* \"#utility.yul\":4044:4162   */\n      pop\n        /* \"#utility.yul\":4201:4203   */\n      0x60\n        /* \"#utility.yul\":4227:4280   */\n      tag_168\n        /* \"#utility.yul\":4272:4279   */\n      dup8\n        /* \"#utility.yul\":4263:4269   */\n      dup3\n        /* \"#utility.yul\":4252:4261   */\n      dup9\n        /* \"#utility.yul\":4248:4270   */\n      add\n        /* \"#utility.yul\":4227:4280   */\n      tag_91\n      jump\t// in\n    tag_168:\n        /* \"#utility.yul\":4217:4280   */\n      swap2\n      pop\n        /* \"#utility.yul\":4172:4290   */\n      pop\n        /* \"#utility.yul\":3532:4297   */\n      swap3\n      swap6\n      swap2\n      swap5\n      pop\n      swap3\n      pop\n      jump\t// out\n        /* \"#utility.yul\":4303:4525   */\n    tag_31:\n        /* \"#utility.yul\":4396:4400   */\n      0x00\n        /* \"#utility.yul\":4434:4436   */\n      0x20\n        /* \"#utility.yul\":4423:4432   */\n      dup3\n        /* \"#utility.yul\":4419:4437   */\n      add\n        /* \"#utility.yul\":4411:4437   */\n      swap1\n      pop\n        /* \"#utility.yul\":4447:4518   */\n      tag_170\n        /* \"#utility.yul\":4515:4516   */\n      0x00\n        /* \"#utility.yul\":4504:4513   */\n      dup4\n        /* \"#utility.yul\":4500:4517   */\n      add\n        /* \"#utility.yul\":4491:4497   */\n      dup5\n        /* \"#utility.yul\":4447:4518   */\n      tag_94\n      jump\t// in\n    tag_170:\n        /* \"#utility.yul\":4303:4525   */\n      swap3\n      swap2\n      pop\n      pop\n      jump\t// out\n        /* \"#utility.yul\":4531:5516   */\n    tag_44:\n        /* \"#utility.yul\":4814:4818   */\n      0x00\n        /* \"#utility.yul\":4852:4855   */\n      0x0100\n        /* \"#utility.yul\":4841:4850   */\n      dup3\n        /* \"#utility.yul\":4837:4856   */\n      add\n        /* \"#utility.yul\":4829:4856   */\n      swap1\n      pop\n        /* \"#utility.yul\":4866:4937   */\n      tag_172\n        /* \"#utility.yul\":4934:4935   */\n      0x00\n        /* \"#utility.yul\":4923:4932   */\n      dup4\n        /* \"#utility.yul\":4919:4936   */\n      add\n        /* \"#utility.yul\":4910:4916   */\n      dup12\n        /* \"#utility.yul\":4866:4937   */\n      tag_94\n      jump\t// in\n    tag_172:\n        /* \"#utility.yul\":4947:5019   */\n      tag_173\n        /* \"#utility.yul\":5015:5017   */\n      0x20\n        /* \"#utility.yul\":5004:5013   */\n      dup4\n        /* \"#utility.yul\":5000:5018   */\n      add\n        /* \"#utility.yul\":4991:4997   */\n      dup11\n        /* \"#utility.yul\":4947:5019   */\n      tag_86\n      jump\t// in\n    tag_173:\n        /* \"#utility.yul\":5029:5101   */\n      tag_174\n        /* \"#utility.yul\":5097:5099   */\n      0x40\n        /* \"#utility.yul\":5086:5095   */\n      dup4\n        /* \"#utility.yul\":5082:5100   */\n      add\n        /* \"#utility.yul\":5073:5079   */\n      dup10\n        /* \"#utility.yul\":5029:5101   */\n      tag_94\n      jump\t// in\n    tag_174:\n        /* \"#utility.yul\":5111:5183   */\n      tag_175\n        /* \"#utility.yul\":5179:5181   */\n      0x60\n        /* \"#utility.yul\":5168:5177   */\n      dup4\n        /* \"#utility.yul\":5164:5182   */\n      add\n        /* \"#utility.yul\":5155:5161   */\n      dup9\n        /* \"#utility.yul\":5111:5183   */\n      tag_86\n      jump\t// in\n    tag_175:\n        /* \"#utility.yul\":5193:5266   */\n      tag_176\n        /* \"#utility.yul\":5261:5264   */\n      0x80\n        /* \"#utility.yul\":5250:5259   */\n      dup4\n        /* \"#utility.yul\":5246:5265   */\n      add\n        /* \"#utility.yul\":5237:5243   */\n      dup8\n        /* \"#utility.yul\":5193:5266   */\n      tag_86\n      jump\t// in\n    tag_176:\n        /* \"#utility.yul\":5276:5349   */\n      tag_177\n        /* \"#utility.yul\":5344:5347   */\n      0xa0\n        /* \"#utility.yul\":5333:5342   */\n      dup4\n        /* \"#utility.yul\":5329:5348   */\n      add\n        /* \"#utility.yul\":5320:5326   */\n      dup7\n        /* \"#utility.yul\":5276:5349   */\n      tag_94\n      jump\t// in\n    tag_177:\n        /* \"#utility.yul\":5359:5432   */\n      tag_178\n        /* \"#utility.yul\":5427:5430   */\n      0xc0\n        /* \"#utility.yul\":5416:5425   */\n      dup4\n        /* \"#utility.yul\":5412:5431   */\n      add\n        /* \"#utility.yul\":5403:5409   */\n      dup6\n        /* \"#utility.yul\":5359:5432   */\n      tag_86\n      jump\t// in\n    tag_178:\n        /* \"#utility.yul\":5442:5509   */\n      tag_179\n        /* \"#utility.yul\":5504:5507   */\n      0xe0\n        /* \"#utility.yul\":5493:5502   */\n      dup4\n        /* \"#utility.yul\":5489:5508   */\n      add\n        /* \"#utility.yul\":5480:5486   */\n      dup5\n        /* \"#utility.yul\":5442:5509   */\n      tag_98\n      jump\t// in\n    tag_179:\n        /* \"#utility.yul\":4531:5516   */\n      swap10\n      swap9\n      pop\n      pop\n      pop\n      pop\n      pop\n      pop\n      pop\n      pop\n      pop\n      jump\t// out\n        /* \"#utility.yul\":5522:5691   */\n    tag_101:\n        /* \"#utility.yul\":5606:5617   */\n      0x00\n        /* \"#utility.yul\":5640:5646   */\n      dup3\n        /* \"#utility.yul\":5635:5638   */\n      dup3\n        /* \"#utility.yul\":5628:5647   */\n      mstore\n        /* \"#utility.yul\":5680:5684   */\n      0x20\n        /* \"#utility.yul\":5675:5678   */\n      dup3\n        /* \"#utility.yul\":5671:5685   */\n      add\n        /* \"#utility.yul\":5656:5685   */\n      swap1\n      pop\n        /* \"#utility.yul\":5522:5691   */\n      swap3\n      swap2\n      pop\n      pop\n      jump\t// out\n        /* \"#utility.yul\":5697:5921   */\n    tag_102:\n        /* \"#utility.yul\":5837:5871   */\n      0x5374617274207072696365206d7573742062652067726561746572207468616e\n        /* \"#utility.yul\":5833:5834   */\n      0x00\n        /* \"#utility.yul\":5825:5831   */\n      dup3\n        /* \"#utility.yul\":5821:5835   */\n      add\n        /* \"#utility.yul\":5814:5872   */\n      mstore\n        /* \"#utility.yul\":5906:5913   */\n      0x207a65726f000000000000000000000000000000000000000000000000000000\n        /* \"#utility.yul\":5901:5903   */\n      0x20\n        /* \"#utility.yul\":5893:5899   */\n      dup3\n        /* \"#utility.yul\":5889:5904   */\n      add\n        /* \"#utility.yul\":5882:5914   */\n      mstore\n        /* \"#utility.yul\":5697:5921   */\n      pop\n      jump\t// out\n        /* \"#utility.yul\":5927:6293   */\n    tag_103:\n        /* \"#utility.yul\":6069:6072   */\n      0x00\n        /* \"#utility.yul\":6090:6157   */\n      tag_183\n        /* \"#utility.yul\":6154:6156   */\n      0x25\n        /* \"#utility.yul\":6149:6152   */\n      dup4\n        /* \"#utility.yul\":6090:6157   */\n      tag_101\n      jump\t// in\n    tag_183:\n        /* \"#utility.yul\":6083:6157   */\n      swap2\n      pop\n        /* \"#utility.yul\":6166:6259   */\n      tag_184\n        /* \"#utility.yul\":6255:6258   */\n      dup3\n        /* \"#utility.yul\":6166:6259   */\n      tag_102\n      jump\t// in\n    tag_184:\n        /* \"#utility.yul\":6284:6286   */\n      0x40\n        /* \"#utility.yul\":6279:6282   */\n      dup3\n        /* \"#utility.yul\":6275:6287   */\n      add\n        /* \"#utility.yul\":6268:6287   */\n      swap1\n      pop\n        /* \"#utility.yul\":5927:6293   */\n      swap2\n      swap1\n      pop\n      jump\t// out\n        /* \"#utility.yul\":6299:6718   */\n    tag_48:\n        /* \"#utility.yul\":6465:6469   */\n      0x00\n        /* \"#utility.yul\":6503:6505   */\n      0x20\n        /* \"#utility.yul\":6492:6501   */\n      dup3\n        /* \"#utility.yul\":6488:6506   */\n      add\n        /* \"#utility.yul\":6480:6506   */\n      swap1\n      pop\n        /* \"#utility.yul\":6552:6561   */\n      dup2\n        /* \"#utility.yul\":6546:6550   */\n      dup2\n        /* \"#utility.yul\":6542:6562   */\n      sub\n        /* \"#utility.yul\":6538:6539   */\n      0x00\n        /* \"#utility.yul\":6527:6536   */\n      dup4\n        /* \"#utility.yul\":6523:6540   */\n      add\n        /* \"#utility.yul\":6516:6563   */\n      mstore\n        /* \"#utility.yul\":6580:6711   */\n      tag_186\n        /* \"#utility.yul\":6706:6710   */\n      dup2\n        /* \"#utility.yul\":6580:6711   */\n      tag_103\n      jump\t// in\n    tag_186:\n        /* \"#utility.yul\":6572:6711   */\n      swap1\n      pop\n        /* \"#utility.yul\":6299:6718   */\n      swap2\n      swap1\n      pop\n      jump\t// out\n        /* \"#utility.yul\":6724:7166   */\n    tag_50:\n        /* \"#utility.yul\":6873:6877   */\n      0x00\n        /* \"#utility.yul\":6911:6913   */\n      0x60\n        /* \"#utility.yul\":6900:6909   */\n      dup3\n        /* \"#utility.yul\":6896:6914   */\n      add\n        /* \"#utility.yul\":6888:6914   */\n      swap1\n      pop\n        /* \"#utility.yul\":6924:6995   */\n      tag_188\n        /* \"#utility.yul\":6992:6993   */\n      0x00\n        /* \"#utility.yul\":6981:6990   */\n      dup4\n        /* \"#utility.yul\":6977:6994   */\n      add\n        /* \"#utility.yul\":6968:6974   */\n      dup7\n        /* \"#utility.yul\":6924:6995   */\n      tag_94\n      jump\t// in\n    tag_188:\n        /* \"#utility.yul\":7005:7077   */\n      tag_189\n        /* \"#utility.yul\":7073:7075   */\n      0x20\n        /* \"#utility.yul\":7062:7071   */\n      dup4\n        /* \"#utility.yul\":7058:7076   */\n      add\n        /* \"#utility.yul\":7049:7055   */\n      dup6\n        /* \"#utility.yul\":7005:7077   */\n      tag_94\n      jump\t// in\n    tag_189:\n        /* \"#utility.yul\":7087:7159   */\n      tag_190\n        /* \"#utility.yul\":7155:7157   */\n      0x40\n        /* \"#utility.yul\":7144:7153   */\n      dup4\n        /* \"#utility.yul\":7140:7158   */\n      add\n        /* \"#utility.yul\":7131:7137   */\n      dup5\n        /* \"#utility.yul\":7087:7159   */\n      tag_86\n      jump\t// in\n    tag_190:\n        /* \"#utility.yul\":6724:7166   */\n      swap5\n      swap4\n      pop\n      pop\n      pop\n      pop\n      jump\t// out\n        /* \"#utility.yul\":7172:7352   */\n    tag_104:\n        /* \"#utility.yul\":7220:7297   */\n      0x4e487b7100000000000000000000000000000000000000000000000000000000\n        /* \"#utility.yul\":7217:7218   */\n      0x00\n        /* \"#utility.yul\":7210:7298   */\n      mstore\n        /* \"#utility.yul\":7317:7321   */\n      0x11\n        /* \"#utility.yul\":7314:7315   */\n      0x04\n        /* \"#utility.yul\":7307:7322   */\n      mstore\n        /* \"#utility.yul\":7341:7345   */\n      0x24\n        /* \"#utility.yul\":7338:7339   */\n      0x00\n        /* \"#utility.yul\":7331:7346   */\n      revert\n        /* \"#utility.yul\":7358:7591   */\n    tag_56:\n        /* \"#utility.yul\":7397:7400   */\n      0x00\n        /* \"#utility.yul\":7420:7444   */\n      tag_193\n        /* \"#utility.yul\":7438:7443   */\n      dup3\n        /* \"#utility.yul\":7420:7444   */\n      tag_85\n      jump\t// in\n    tag_193:\n        /* \"#utility.yul\":7411:7444   */\n      swap2\n      pop\n        /* \"#utility.yul\":7466:7532   */\n      0xffffffffffffffffffffffffffffffffffffffffffffffffffffffffffffffff\n        /* \"#utility.yul\":7459:7464   */\n      dup3\n        /* \"#utility.yul\":7456:7533   */\n      eq\n        /* \"#utility.yul\":7453:7556   */\n      iszero\n      tag_194\n      jumpi\n        /* \"#utility.yul\":7536:7554   */\n      tag_195\n      tag_104\n      jump\t// in\n    tag_195:\n        /* \"#utility.yul\":7453:7556   */\n    tag_194:\n        /* \"#utility.yul\":7583:7584   */\n      0x01\n        /* \"#utility.yul\":7576:7581   */\n      dup3\n        /* \"#utility.yul\":7572:7585   */\n      add\n        /* \"#utility.yul\":7565:7585   */\n      swap1\n      pop\n        /* \"#utility.yul\":7358:7591   */\n      swap2\n      swap1\n      pop\n      jump\t// out\n        /* \"#utility.yul\":7597:7768   */\n    tag_105:\n        /* \"#utility.yul\":7737:7760   */\n      0x5468652061756374696f6e2068617320656e6465640000000000000000000000\n        /* \"#utility.yul\":7733:7734   */\n      0x00\n        /* \"#utility.yul\":7725:7731   */\n      dup3\n        /* \"#utility.yul\":7721:7735   */\n      add\n        /* \"#utility.yul\":7714:7761   */\n      mstore\n        /* \"#utility.yul\":7597:7768   */\n      pop\n      jump\t// out\n        /* \"#utility.yul\":7774:8140   */\n    tag_106:\n        /* \"#utility.yul\":7916:7919   */\n      0x00\n        /* \"#utility.yul\":7937:8004   */\n      tag_198\n        /* \"#utility.yul\":8001:8003   */\n      0x15\n        /* \"#utility.yul\":7996:7999   */\n      dup4\n        /* \"#utility.yul\":7937:8004   */\n      tag_101\n      jump\t// in\n    tag_198:\n        /* \"#utility.yul\":7930:8004   */\n      swap2\n      pop\n        /* \"#utility.yul\":8013:8106   */\n      tag_199\n        /* \"#utility.yul\":8102:8105   */\n      dup3\n        /* \"#utility.yul\":8013:8106   */\n      tag_105\n      jump\t// in\n    tag_199:\n        /* \"#utility.yul\":8131:8133   */\n      0x20\n        /* \"#utility.yul\":8126:8129   */\n      dup3\n        /* \"#utility.yul\":8122:8134   */\n      add\n        /* \"#utility.yul\":8115:8134   */\n      swap1\n      pop\n        /* \"#utility.yul\":7774:8140   */\n      swap2\n      swap1\n      pop\n      jump\t// out\n        /* \"#utility.yul\":8146:8565   */\n    tag_60:\n        /* \"#utility.yul\":8312:8316   */\n      0x00\n        /* \"#utility.yul\":8350:8352   */\n      0x20\n        /* \"#utility.yul\":8339:8348   */\n      dup3\n        /* \"#utility.yul\":8335:8353   */\n      add\n        /* \"#utility.yul\":8327:8353   */\n      swap1\n      pop\n        /* \"#utility.yul\":8399:8408   */\n      dup2\n        /* \"#utility.yul\":8393:8397   */\n      dup2\n        /* \"#utility.yul\":8389:8409   */\n      sub\n        /* \"#utility.yul\":8385:8386   */\n      0x00\n        /* \"#utility.yul\":8374:8383   */\n      dup4\n        /* \"#utility.yul\":8370:8387   */\n      add\n        /* \"#utility.yul\":8363:8410   */\n      mstore\n        /* \"#utility.yul\":8427:8558   */\n      tag_201\n        /* \"#utility.yul\":8553:8557   */\n      dup2\n        /* \"#utility.yul\":8427:8558   */\n      tag_106\n      jump\t// in\n    tag_201:\n        /* \"#utility.yul\":8419:8558   */\n      swap1\n      pop\n        /* \"#utility.yul\":8146:8565   */\n      swap2\n      swap1\n      pop\n      jump\t// out\n        /* \"#utility.yul\":8571:8750   */\n    tag_107:\n        /* \"#utility.yul\":8711:8742   */\n      0x5468652061756374696f6e2068617320616c726561647920656e646564000000\n        /* \"#utility.yul\":8707:8708   */\n      0x00\n        /* \"#utility.yul\":8699:8705   */\n      dup3\n        /* \"#utility.yul\":8695:8709   */\n      add\n        /* \"#utility.yul\":8688:8743   */\n      mstore\n        /* \"#utility.yul\":8571:8750   */\n      pop\n      jump\t// out\n        /* \"#utility.yul\":8756:9122   */\n    tag_108:\n        /* \"#utility.yul\":8898:8901   */\n      0x00\n        /* \"#utility.yul\":8919:8986   */\n      tag_204\n        /* \"#utility.yul\":8983:8985   */\n      0x1d\n        /* \"#utility.yul\":8978:8981   */\n      dup4\n        /* \"#utility.yul\":8919:8986   */\n      tag_101\n      jump\t// in\n    tag_204:\n        /* \"#utility.yul\":8912:8986   */\n      swap2\n      pop\n        /* \"#utility.yul\":8995:9088   */\n      tag_205\n        /* \"#utility.yul\":9084:9087   */\n      dup3\n        /* \"#utility.yul\":8995:9088   */\n      tag_107\n      jump\t// in\n    tag_205:\n        /* \"#utility.yul\":9113:9115   */\n      0x20\n        /* \"#utility.yul\":9108:9111   */\n      dup3\n        /* \"#utility.yul\":9104:9116   */\n      add\n        /* \"#utility.yul\":9097:9116   */\n      swap1\n      pop\n        /* \"#utility.yul\":8756:9122   */\n      swap2\n      swap1\n      pop\n      jump\t// out\n        /* \"#utility.yul\":9128:9547   */\n    tag_63:\n        /* \"#utility.yul\":9294:9298   */\n      0x00\n        /* \"#utility.yul\":9332:9334   */\n      0x20\n        /* \"#utility.yul\":9321:9330   */\n      dup3\n        /* \"#utility.yul\":9317:9335   */\n      add\n        /* \"#utility.yul\":9309:9335   */\n      swap1\n      pop\n        /* \"#utility.yul\":9381:9390   */\n      dup2\n        /* \"#utility.yul\":9375:9379   */\n      dup2\n        /* \"#utility.yul\":9371:9391   */\n      sub\n        /* \"#utility.yul\":9367:9368   */\n      0x00\n        /* \"#utility.yul\":9356:9365   */\n      dup4\n        /* \"#utility.yul\":9352:9369   */\n      add\n        /* \"#utility.yul\":9345:9392   */\n      mstore\n        /* \"#utility.yul\":9409:9540   */\n      tag_207\n        /* \"#utility.yul\":9535:9539   */\n      dup2\n        /* \"#utility.yul\":9409:9540   */\n      tag_108\n      jump\t// in\n    tag_207:\n        /* \"#utility.yul\":9401:9540   */\n      swap1\n      pop\n        /* \"#utility.yul\":9128:9547   */\n      swap2\n      swap1\n      pop\n      jump\t// out\n        /* \"#utility.yul\":9553:9794   */\n    tag_109:\n        /* \"#utility.yul\":9693:9727   */\n      0x42696420616d6f756e74206d75737420626520686967686572207468616e2074\n        /* \"#utility.yul\":9689:9690   */\n      0x00\n        /* \"#utility.yul\":9681:9687   */\n      dup3\n        /* \"#utility.yul\":9677:9691   */\n      add\n        /* \"#utility.yul\":9670:9728   */\n      mstore\n        /* \"#utility.yul\":9762:9786   */\n      0x68652063757272656e7420686967686573742062696400000000000000000000\n        /* \"#utility.yul\":9757:9759   */\n      0x20\n        /* \"#utility.yul\":9749:9755   */\n      dup3\n        /* \"#utility.yul\":9745:9760   */\n      add\n        /* \"#utility.yul\":9738:9787   */\n      mstore\n        /* \"#utility.yul\":9553:9794   */\n      pop\n      jump\t// out\n        /* \"#utility.yul\":9800:10166   */\n    tag_110:\n        /* \"#utility.yul\":9942:9945   */\n      0x00\n        /* \"#utility.yul\":9963:10030   */\n      tag_210\n        /* \"#utility.yul\":10027:10029   */\n      0x36\n        /* \"#utility.yul\":10022:10025   */\n      dup4\n        /* \"#utility.yul\":9963:10030   */\n      tag_101\n      jump\t// in\n    tag_210:\n        /* \"#utility.yul\":9956:10030   */\n      swap2\n      pop\n        /* \"#utility.yul\":10039:10132   */\n      tag_211\n        /* \"#utility.yul\":10128:10131   */\n      dup3\n        /* \"#utility.yul\":10039:10132   */\n      tag_109\n      jump\t// in\n    tag_211:\n        /* \"#utility.yul\":10157:10159   */\n      0x40\n        /* \"#utility.yul\":10152:10155   */\n      dup3\n        /* \"#utility.yul\":10148:10160   */\n      add\n        /* \"#utility.yul\":10141:10160   */\n      swap1\n      pop\n        /* \"#utility.yul\":9800:10166   */\n      swap2\n      swap1\n      pop\n      jump\t// out\n        /* \"#utility.yul\":10172:10591   */\n    tag_66:\n        /* \"#utility.yul\":10338:10342   */\n      0x00\n        /* \"#utility.yul\":10376:10378   */\n      0x20\n        /* \"#utility.yul\":10365:10374   */\n      dup3\n        /* \"#utility.yul\":10361:10379   */\n      add\n        /* \"#utility.yul\":10353:10379   */\n      swap1\n      pop\n        /* \"#utility.yul\":10425:10434   */\n      dup2\n        /* \"#utility.yul\":10419:10423   */\n      dup2\n        /* \"#utility.yul\":10415:10435   */\n      sub\n        /* \"#utility.yul\":10411:10412   */\n      0x00\n        /* \"#utility.yul\":10400:10409   */\n      dup4\n        /* \"#utility.yul\":10396:10413   */\n      add\n        /* \"#utility.yul\":10389:10436   */\n      mstore\n        /* \"#utility.yul\":10453:10584   */\n      tag_213\n        /* \"#utility.yul\":10579:10583   */\n      dup2\n        /* \"#utility.yul\":10453:10584   */\n      tag_110\n      jump\t// in\n    tag_213:\n        /* \"#utility.yul\":10445:10584   */\n      swap1\n      pop\n        /* \"#utility.yul\":10172:10591   */\n      swap2\n      swap1\n      pop\n      jump\t// out\n        /* \"#utility.yul\":10597:10929   */\n    tag_71:\n        /* \"#utility.yul\":10718:10722   */\n      0x00\n        /* \"#utility.yul\":10756:10758   */\n      0x40\n        /* \"#utility.yul\":10745:10754   */\n      dup3\n        /* \"#utility.yul\":10741:10759   */\n      add\n        /* \"#utility.yul\":10733:10759   */\n      swap1\n      pop\n        /* \"#utility.yul\":10769:10840   */\n      tag_215\n        /* \"#utility.yul\":10837:10838   */\n      0x00\n        /* \"#utility.yul\":10826:10835   */\n      dup4\n        /* \"#utility.yul\":10822:10839   */\n      add\n        /* \"#utility.yul\":10813:10819   */\n      dup6\n        /* \"#utility.yul\":10769:10840   */\n      tag_86\n      jump\t// in\n    tag_215:\n        /* \"#utility.yul\":10850:10922   */\n      tag_216\n        /* \"#utility.yul\":10918:10920   */\n      0x20\n        /* \"#utility.yul\":10907:10916   */\n      dup4\n        /* \"#utility.yul\":10903:10921   */\n      add\n        /* \"#utility.yul\":10894:10900   */\n      dup5\n        /* \"#utility.yul\":10850:10922   */\n      tag_86\n      jump\t// in\n    tag_216:\n        /* \"#utility.yul\":10597:10929   */\n      swap4\n      swap3\n      pop\n      pop\n      pop\n      jump\t// out\n        /* \"#utility.yul\":10935:11114   */\n    tag_111:\n        /* \"#utility.yul\":11075:11106   */\n      0x5468652061756374696f6e20686173206e6f7420656e64656420796574000000\n        /* \"#utility.yul\":11071:11072   */\n      0x00\n        /* \"#utility.yul\":11063:11069   */\n      dup3\n        /* \"#utility.yul\":11059:11073   */\n      add\n        /* \"#utility.yul\":11052:11107   */\n      mstore\n        /* \"#utility.yul\":10935:11114   */\n      pop\n      jump\t// out\n        /* \"#utility.yul\":11120:11486   */\n    tag_112:\n        /* \"#utility.yul\":11262:11265   */\n      0x00\n        /* \"#utility.yul\":11283:11350   */\n      tag_219\n        /* \"#utility.yul\":11347:11349   */\n      0x1d\n        /* \"#utility.yul\":11342:11345   */\n      dup4\n        /* \"#utility.yul\":11283:11350   */\n      tag_101\n      jump\t// in\n    tag_219:\n        /* \"#utility.yul\":11276:11350   */\n      swap2\n      pop\n        /* \"#utility.yul\":11359:11452   */\n      tag_220\n        /* \"#utility.yul\":11448:11451   */\n      dup3\n        /* \"#utility.yul\":11359:11452   */\n      tag_111\n      jump\t// in\n    tag_220:\n        /* \"#utility.yul\":11477:11479   */\n      0x20\n        /* \"#utility.yul\":11472:11475   */\n      dup3\n        /* \"#utility.yul\":11468:11480   */\n      add\n        /* \"#utility.yul\":11461:11480   */\n      swap1\n      pop\n        /* \"#utility.yul\":11120:11486   */\n      swap2\n      swap1\n      pop\n      jump\t// out\n        /* \"#utility.yul\":11492:11911   */\n    tag_77:\n        /* \"#utility.yul\":11658:11662   */\n      0x00\n        /* \"#utility.yul\":11696:11698   */\n      0x20\n        /* \"#utility.yul\":11685:11694   */\n      dup3\n        /* \"#utility.yul\":11681:11699   */\n      add\n        /* \"#utility.yul\":11673:11699   */\n      swap1\n      pop\n        /* \"#utility.yul\":11745:11754   */\n      dup2\n        /* \"#utility.yul\":11739:11743   */\n      dup2\n        /* \"#utility.yul\":11735:11755   */\n      sub\n        /* \"#utility.yul\":11731:11732   */\n      0x00\n        /* \"#utility.yul\":11720:11729   */\n      dup4\n        /* \"#utility.yul\":11716:11733   */\n      add\n        /* \"#utility.yul\":11709:11756   */\n      mstore\n        /* \"#utility.yul\":11773:11904   */\n      tag_222\n        /* \"#utility.yul\":11899:11903   */\n      dup2\n        /* \"#utility.yul\":11773:11904   */\n      tag_112\n      jump\t// in\n    tag_222:\n        /* \"#utility.yul\":11765:11904   */\n      swap1\n      pop\n        /* \"#utility.yul\":11492:11911   */\n      swap2\n      swap1\n      pop\n      jump\t// out\n        /* \"#utility.yul\":11917:11977   */\n    tag_113:\n        /* \"#utility.yul\":11945:11948   */\n      0x00\n        /* \"#utility.yul\":11966:11971   */\n      dup2\n        /* \"#utility.yul\":11959:11971   */\n      swap1\n      pop\n        /* \"#utility.yul\":11917:11977   */\n      swap2\n      swap1\n      pop\n      jump\t// out\n        /* \"#utility.yul\":11983:12125   */\n    tag_114:\n        /* \"#utility.yul\":12033:12042   */\n      0x00\n        /* \"#utility.yul\":12066:12119   */\n      tag_225\n        /* \"#utility.yul\":12084:12118   */\n      tag_226\n        /* \"#utility.yul\":12093:12117   */\n      tag_227\n        /* \"#utility.yul\":12111:12116   */\n      dup5\n        /* \"#utility.yul\":12093:12117   */\n      tag_92\n      jump\t// in\n    tag_227:\n        /* \"#utility.yul\":12084:12118   */\n      tag_113\n      jump\t// in\n    tag_226:\n        /* \"#utility.yul\":12066:12119   */\n      tag_92\n      jump\t// in\n    tag_225:\n        /* \"#utility.yul\":12053:12119   */\n      swap1\n      pop\n        /* \"#utility.yul\":11983:12125   */\n      swap2\n      swap1\n      pop\n      jump\t// out\n        /* \"#utility.yul\":12131:12257   */\n    tag_115:\n        /* \"#utility.yul\":12181:12190   */\n      0x00\n        /* \"#utility.yul\":12214:12251   */\n      tag_229\n        /* \"#utility.yul\":12245:12250   */\n      dup3\n        /* \"#utility.yul\":12214:12251   */\n      tag_114\n      jump\t// in\n    tag_229:\n        /* \"#utility.yul\":12201:12251   */\n      swap1\n      pop\n        /* \"#utility.yul\":12131:12257   */\n      swap2\n      swap1\n      pop\n      jump\t// out\n        /* \"#utility.yul\":12263:12397   */\n    tag_116:\n        /* \"#utility.yul\":12321:12330   */\n      0x00\n        /* \"#utility.yul\":12354:12391   */\n      tag_231\n        /* \"#utility.yul\":12385:12390   */\n      dup3\n        /* \"#utility.yul\":12354:12391   */\n      tag_115\n      jump\t// in\n    tag_231:\n        /* \"#utility.yul\":12341:12391   */\n      swap1\n      pop\n        /* \"#utility.yul\":12263:12397   */\n      swap2\n      swap1\n      pop\n      jump\t// out\n        /* \"#utility.yul\":12403:12550   */\n    tag_117:\n        /* \"#utility.yul\":12498:12543   */\n      tag_233\n        /* \"#utility.yul\":12537:12542   */\n      dup2\n        /* \"#utility.yul\":12498:12543   */\n      tag_116\n      jump\t// in\n    tag_233:\n        /* \"#utility.yul\":12493:12496   */\n      dup3\n        /* \"#utility.yul\":12486:12544   */\n      mstore\n        /* \"#utility.yul\":12403:12550   */\n      pop\n      pop\n      jump\t// out\n        /* \"#utility.yul\":12556:13014   */\n    tag_79:\n        /* \"#utility.yul\":12713:12717   */\n      0x00\n        /* \"#utility.yul\":12751:12753   */\n      0x60\n        /* \"#utility.yul\":12740:12749   */\n      dup3\n        /* \"#utility.yul\":12736:12754   */\n      add\n        /* \"#utility.yul\":12728:12754   */\n      swap1\n      pop\n        /* \"#utility.yul\":12764:12835   */\n      tag_235\n        /* \"#utility.yul\":12832:12833   */\n      0x00\n        /* \"#utility.yul\":12821:12830   */\n      dup4\n        /* \"#utility.yul\":12817:12834   */\n      add\n        /* \"#utility.yul\":12808:12814   */\n      dup7\n        /* \"#utility.yul\":12764:12835   */\n      tag_94\n      jump\t// in\n    tag_235:\n        /* \"#utility.yul\":12845:12925   */\n      tag_236\n        /* \"#utility.yul\":12921:12923   */\n      0x20\n        /* \"#utility.yul\":12910:12919   */\n      dup4\n        /* \"#utility.yul\":12906:12924   */\n      add\n        /* \"#utility.yul\":12897:12903   */\n      dup6\n        /* \"#utility.yul\":12845:12925   */\n      tag_117\n      jump\t// in\n    tag_236:\n        /* \"#utility.yul\":12935:13007   */\n      tag_237\n        /* \"#utility.yul\":13003:13005   */\n      0x40\n        /* \"#utility.yul\":12992:13001   */\n      dup4\n        /* \"#utility.yul\":12988:13006   */\n      add\n        /* \"#utility.yul\":12979:12985   */\n      dup5\n        /* \"#utility.yul\":12935:13007   */\n      tag_86\n      jump\t// in\n    tag_237:\n        /* \"#utility.yul\":12556:13014   */\n      swap5\n      swap4\n      pop\n      pop\n      pop\n      pop\n      jump\t// out\n\n    auxdata: 0xa26469706673582212205d5cd8e615d489f0eb366185a8eea0ebb94fd1e3f7555c007ea7cf0165050f6c64736f6c63430008090033\n}\n",
				"bytecode": {
					"linkReferences": {},
					"object": "608060405234801561001057600080fd5b50336000806101000a81548173ffffffffffffffffffffffffffffffffffffffff021916908373ffffffffffffffffffffffffffffffffffffffff160217905550600180819055506110a9806100676000396000f3fe6080604052600436106100705760003560e01c80638da5cb5b1161004e5780638da5cb5b1461010d5780639979ef4514610138578063b9a2de3a14610154578063f20e5e351461017d57610070565b806310782f8f14610075578063571a26a0146100a057806361beb1d7146100e4575b600080fd5b34801561008157600080fd5b5061008a6101c1565b60405161009791906109ec565b60405180910390f35b3480156100ac57600080fd5b506100c760048036038101906100c29190610a38565b6101c7565b6040516100db989796959493929190610ae2565b60405180910390f35b3480156100f057600080fd5b5061010b60048036038101906101069190610b8c565b61027c565b005b34801561011957600080fd5b50610122610475565b60405161012f9190610bf3565b60405180910390f35b610152600480360381019061014d9190610a38565b610499565b005b34801561016057600080fd5b5061017b60048036038101906101769190610a38565b6106f7565b005b34801561018957600080fd5b506101a4600480360381019061019f9190610a38565b6108ff565b6040516101b8989796959493929190610c0e565b60405180910390f35b60015481565b60026020528060005260406000206000915090508060000160009054906101000a900473ffffffffffffffffffffffffffffffffffffffff16908060010154908060020160009054906101000a900473ffffffffffffffffffffffffffffffffffffffff16908060030154908060040154908060050160009054906101000a900473ffffffffffffffffffffffffffffffffffffffff16908060060154908060070160009054906101000a900460ff16905088565b600082116102bf576040517f08c379a00000000000000000000000000000000000000000000000000000000081526004016102b690610d0f565b60405180910390fd5b60008490508073ffffffffffffffffffffffffffffffffffffffff166323b872dd3330876040518463ffffffff1660e01b815260040161030193929190610d2f565b600060405180830381600087803b15801561031b57600080fd5b505af115801561032f573d6000803e3d6000fd5b5050505060006002600060015481526020019081526020016000209050858160000160006101000a81548173ffffffffffffffffffffffffffffffffffffffff021916908373ffffffffffffffffffffffffffffffffffffffff160217905550848160010181905550338160020160006101000a81548173ffffffffffffffffffffffffffffffffffffffff021916908373ffffffffffffffffffffffffffffffffffffffff1602179055508381600301819055508281600401819055503373ffffffffffffffffffffffffffffffffffffffff16858773ffffffffffffffffffffffffffffffffffffffff167f6d2fe54cbc40a66ebc27386848d449a691423e6867883635ffe7b9cfa9d77e0a60015460405161044d91906109ec565b60405180910390a46001600081548092919061046890610d95565b9190505550505050505050565b60008054906101000a900473ffffffffffffffffffffffffffffffffffffffff1681565b60006002600083815260200190815260200160002090508060070160009054906101000a900460ff1615610502576040517f08c379a00000000000000000000000000000000000000000000000000000000081526004016104f990610e2a565b60405180910390fd5b8060040154431115610549576040517f08c379a000000000000000000000000000000000000000000000000000000000815260040161054090610e96565b60405180910390fd5b8060060154341161058f576040517f08c379a000000000000000000000000000000000000000000000000000000000815260040161058690610f28565b60405180910390fd5b600073ffffffffffffffffffffffffffffffffffffffff168160050160009054906101000a900473ffffffffffffffffffffffffffffffffffffffff1673ffffffffffffffffffffffffffffffffffffffff1614610657578060050160009054906101000a900473ffffffffffffffffffffffffffffffffffffffff1673ffffffffffffffffffffffffffffffffffffffff166108fc82600601549081150290604051600060405180830381858888f19350505050158015610655573d6000803e3d6000fd5b505b338160050160006101000a81548173ffffffffffffffffffffffffffffffffffffffff021916908373ffffffffffffffffffffffffffffffffffffffff1602179055503481600601819055503373ffffffffffffffffffffffffffffffffffffffff167f0e54eff26401bf69b81b26f60bd85ef47f5d85275c1d268d84f68d6897431c4783346040516106eb929190610f48565b60405180910390a25050565b60006002600083815260200190815260200160002090508060070160009054906101000a900460ff1615610760576040517f08c379a000000000000000000000000000000000000000000000000000000000815260040161075790610e96565b60405180910390fd5b806004015443116107a6576040517f08c379a000000000000000000000000000000000000000000000000000000000815260040161079d90610fbd565b60405180910390fd5b60018160070160006101000a81548160ff02191690831515021790555060008160000160009054906101000a900473ffffffffffffffffffffffffffffffffffffffff1690508073ffffffffffffffffffffffffffffffffffffffff166323b872dd308460050160009054906101000a900473ffffffffffffffffffffffffffffffffffffffff1685600101546040518463ffffffff1660e01b81526004016108519392919061103c565b600060405180830381600087803b15801561086b57600080fd5b505af115801561087f573d6000803e3d6000fd5b5050505081600601548260050160009054906101000a900473ffffffffffffffffffffffffffffffffffffffff1673ffffffffffffffffffffffffffffffffffffffff167fd2aa34a4fdbbc6dff6a3e56f46e0f3ae2a31d7785ff3487aa5c95c642acea501856040516108f291906109ec565b60405180910390a3505050565b6000806000806000806000806000600260008b815260200190815260200160002090508060000160009054906101000a900473ffffffffffffffffffffffffffffffffffffffff1681600101548260020160009054906101000a900473ffffffffffffffffffffffffffffffffffffffff16836003015484600401548560050160009054906101000a900473ffffffffffffffffffffffffffffffffffffffff1686600601548760070160009054906101000a900460ff169850985098509850985098509850985050919395975091939597565b6000819050919050565b6109e6816109d3565b82525050565b6000602082019050610a0160008301846109dd565b92915050565b600080fd5b610a15816109d3565b8114610a2057600080fd5b50565b600081359050610a3281610a0c565b92915050565b600060208284031215610a4e57610a4d610a07565b5b6000610a5c84828501610a23565b91505092915050565b600073ffffffffffffffffffffffffffffffffffffffff82169050919050565b6000610a9082610a65565b9050919050565b610aa081610a85565b82525050565b6000610ab182610a65565b9050919050565b610ac181610aa6565b82525050565b60008115159050919050565b610adc81610ac7565b82525050565b600061010082019050610af8600083018b610a97565b610b05602083018a6109dd565b610b126040830189610ab8565b610b1f60608301886109dd565b610b2c60808301876109dd565b610b3960a0830186610ab8565b610b4660c08301856109dd565b610b5360e0830184610ad3565b9998505050505050505050565b610b6981610a85565b8114610b7457600080fd5b50565b600081359050610b8681610b60565b92915050565b60008060008060808587031215610ba657610ba5610a07565b5b6000610bb487828801610b77565b9450506020610bc587828801610a23565b9350506040610bd687828801610a23565b9250506060610be787828801610a23565b91505092959194509250565b6000602082019050610c086000830184610a97565b92915050565b600061010082019050610c24600083018b610a97565b610c31602083018a6109dd565b610c3e6040830189610a97565b610c4b60608301886109dd565b610c5860808301876109dd565b610c6560a0830186610a97565b610c7260c08301856109dd565b610c7f60e0830184610ad3565b9998505050505050505050565b600082825260208201905092915050565b7f5374617274207072696365206d7573742062652067726561746572207468616e60008201527f207a65726f000000000000000000000000000000000000000000000000000000602082015250565b6000610cf9602583610c8c565b9150610d0482610c9d565b604082019050919050565b60006020820190508181036000830152610d2881610cec565b9050919050565b6000606082019050610d446000830186610a97565b610d516020830185610a97565b610d5e60408301846109dd565b949350505050565b7f4e487b7100000000000000000000000000000000000000000000000000000000600052601160045260246000fd5b6000610da0826109d3565b91507fffffffffffffffffffffffffffffffffffffffffffffffffffffffffffffffff821415610dd357610dd2610d66565b5b600182019050919050565b7f5468652061756374696f6e2068617320656e6465640000000000000000000000600082015250565b6000610e14601583610c8c565b9150610e1f82610dde565b602082019050919050565b60006020820190508181036000830152610e4381610e07565b9050919050565b7f5468652061756374696f6e2068617320616c726561647920656e646564000000600082015250565b6000610e80601d83610c8c565b9150610e8b82610e4a565b602082019050919050565b60006020820190508181036000830152610eaf81610e73565b9050919050565b7f42696420616d6f756e74206d75737420626520686967686572207468616e207460008201527f68652063757272656e7420686967686573742062696400000000000000000000602082015250565b6000610f12603683610c8c565b9150610f1d82610eb6565b604082019050919050565b60006020820190508181036000830152610f4181610f05565b9050919050565b6000604082019050610f5d60008301856109dd565b610f6a60208301846109dd565b9392505050565b7f5468652061756374696f6e20686173206e6f7420656e64656420796574000000600082015250565b6000610fa7601d83610c8c565b9150610fb282610f71565b602082019050919050565b60006020820190508181036000830152610fd681610f9a565b9050919050565b6000819050919050565b6000611002610ffd610ff884610a65565b610fdd565b610a65565b9050919050565b600061101482610fe7565b9050919050565b600061102682611009565b9050919050565b6110368161101b565b82525050565b60006060820190506110516000830186610a97565b61105e602083018561102d565b61106b60408301846109dd565b94935050505056fea26469706673582212205d5cd8e615d489f0eb366185a8eea0ebb94fd1e3f7555c007ea7cf0165050f6c64736f6c63430008090033",
					"opcodes": "PUSH1 0x80 PUSH1 0x40 MSTORE CALLVALUE DUP1 ISZERO PUSH2 0x10 JUMPI PUSH1 0x0 DUP1 REVERT JUMPDEST POP CALLER PUSH1 0x0 DUP1 PUSH2 0x100 EXP DUP2 SLOAD DUP2 PUSH20 0xFFFFFFFFFFFFFFFFFFFFFFFFFFFFFFFFFFFFFFFF MUL NOT AND SWAP1 DUP4 PUSH20 0xFFFFFFFFFFFFFFFFFFFFFFFFFFFFFFFFFFFFFFFF AND MUL OR SWAP1 SSTORE POP PUSH1 0x1 DUP1 DUP2 SWAP1 SSTORE POP PUSH2 0x10A9 DUP1 PUSH2 0x67 PUSH1 0x0 CODECOPY PUSH1 0x0 RETURN INVALID PUSH1 0x80 PUSH1 0x40 MSTORE PUSH1 0x4 CALLDATASIZE LT PUSH2 0x70 JUMPI PUSH1 0x0 CALLDATALOAD PUSH1 0xE0 SHR DUP1 PUSH4 0x8DA5CB5B GT PUSH2 0x4E JUMPI DUP1 PUSH4 0x8DA5CB5B EQ PUSH2 0x10D JUMPI DUP1 PUSH4 0x9979EF45 EQ PUSH2 0x138 JUMPI DUP1 PUSH4 0xB9A2DE3A EQ PUSH2 0x154 JUMPI DUP1 PUSH4 0xF20E5E35 EQ PUSH2 0x17D JUMPI PUSH2 0x70 JUMP JUMPDEST DUP1 PUSH4 0x10782F8F EQ PUSH2 0x75 JUMPI DUP1 PUSH4 0x571A26A0 EQ PUSH2 0xA0 JUMPI DUP1 PUSH4 0x61BEB1D7 EQ PUSH2 0xE4 JUMPI JUMPDEST PUSH1 0x0 DUP1 REVERT JUMPDEST CALLVALUE DUP1 ISZERO PUSH2 0x81 JUMPI PUSH1 0x0 DUP1 REVERT JUMPDEST POP PUSH2 0x8A PUSH2 0x1C1 JUMP JUMPDEST PUSH1 0x40 MLOAD PUSH2 0x97 SWAP2 SWAP1 PUSH2 0x9EC JUMP JUMPDEST PUSH1 0x40 MLOAD DUP1 SWAP2 SUB SWAP1 RETURN JUMPDEST CALLVALUE DUP1 ISZERO PUSH2 0xAC JUMPI PUSH1 0x0 DUP1 REVERT JUMPDEST POP PUSH2 0xC7 PUSH1 0x4 DUP1 CALLDATASIZE SUB DUP2 ADD SWAP1 PUSH2 0xC2 SWAP2 SWAP1 PUSH2 0xA38 JUMP JUMPDEST PUSH2 0x1C7 JUMP JUMPDEST PUSH1 0x40 MLOAD PUSH2 0xDB SWAP9 SWAP8 SWAP7 SWAP6 SWAP5 SWAP4 SWAP3 SWAP2 SWAP1 PUSH2 0xAE2 JUMP JUMPDEST PUSH1 0x40 MLOAD DUP1 SWAP2 SUB SWAP1 RETURN JUMPDEST CALLVALUE DUP1 ISZERO PUSH2 0xF0 JUMPI PUSH1 0x0 DUP1 REVERT JUMPDEST POP PUSH2 0x10B PUSH1 0x4 DUP1 CALLDATASIZE SUB DUP2 ADD SWAP1 PUSH2 0x106 SWAP2 SWAP1 PUSH2 0xB8C JUMP JUMPDEST PUSH2 0x27C JUMP JUMPDEST STOP JUMPDEST CALLVALUE DUP1 ISZERO PUSH2 0x119 JUMPI PUSH1 0x0 DUP1 REVERT JUMPDEST POP PUSH2 0x122 PUSH2 0x475 JUMP JUMPDEST PUSH1 0x40 MLOAD PUSH2 0x12F SWAP2 SWAP1 PUSH2 0xBF3 JUMP JUMPDEST PUSH1 0x40 MLOAD DUP1 SWAP2 SUB SWAP1 RETURN JUMPDEST PUSH2 0x152 PUSH1 0x4 DUP1 CALLDATASIZE SUB DUP2 ADD SWAP1 PUSH2 0x14D SWAP2 SWAP1 PUSH2 0xA38 JUMP JUMPDEST PUSH2 0x499 JUMP JUMPDEST STOP JUMPDEST CALLVALUE DUP1 ISZERO PUSH2 0x160 JUMPI PUSH1 0x0 DUP1 REVERT JUMPDEST POP PUSH2 0x17B PUSH1 0x4 DUP1 CALLDATASIZE SUB DUP2 ADD SWAP1 PUSH2 0x176 SWAP2 SWAP1 PUSH2 0xA38 JUMP JUMPDEST PUSH2 0x6F7 JUMP JUMPDEST STOP JUMPDEST CALLVALUE DUP1 ISZERO PUSH2 0x189 JUMPI PUSH1 0x0 DUP1 REVERT JUMPDEST POP PUSH2 0x1A4 PUSH1 0x4 DUP1 CALLDATASIZE SUB DUP2 ADD SWAP1 PUSH2 0x19F SWAP2 SWAP1 PUSH2 0xA38 JUMP JUMPDEST PUSH2 0x8FF JUMP JUMPDEST PUSH1 0x40 MLOAD PUSH2 0x1B8 SWAP9 SWAP8 SWAP7 SWAP6 SWAP5 SWAP4 SWAP3 SWAP2 SWAP1 PUSH2 0xC0E JUMP JUMPDEST PUSH1 0x40 MLOAD DUP1 SWAP2 SUB SWAP1 RETURN JUMPDEST PUSH1 0x1 SLOAD DUP2 JUMP JUMPDEST PUSH1 0x2 PUSH1 0x20 MSTORE DUP1 PUSH1 0x0 MSTORE PUSH1 0x40 PUSH1 0x0 KECCAK256 PUSH1 0x0 SWAP2 POP SWAP1 POP DUP1 PUSH1 0x0 ADD PUSH1 0x0 SWAP1 SLOAD SWAP1 PUSH2 0x100 EXP SWAP1 DIV PUSH20 0xFFFFFFFFFFFFFFFFFFFFFFFFFFFFFFFFFFFFFFFF AND SWAP1 DUP1 PUSH1 0x1 ADD SLOAD SWAP1 DUP1 PUSH1 0x2 ADD PUSH1 0x0 SWAP1 SLOAD SWAP1 PUSH2 0x100 EXP SWAP1 DIV PUSH20 0xFFFFFFFFFFFFFFFFFFFFFFFFFFFFFFFFFFFFFFFF AND SWAP1 DUP1 PUSH1 0x3 ADD SLOAD SWAP1 DUP1 PUSH1 0x4 ADD SLOAD SWAP1 DUP1 PUSH1 0x5 ADD PUSH1 0x0 SWAP1 SLOAD SWAP1 PUSH2 0x100 EXP SWAP1 DIV PUSH20 0xFFFFFFFFFFFFFFFFFFFFFFFFFFFFFFFFFFFFFFFF AND SWAP1 DUP1 PUSH1 0x6 ADD SLOAD SWAP1 DUP1 PUSH1 0x7 ADD PUSH1 0x0 SWAP1 SLOAD SWAP1 PUSH2 0x100 EXP SWAP1 DIV PUSH1 0xFF AND SWAP1 POP DUP9 JUMP JUMPDEST PUSH1 0x0 DUP3 GT PUSH2 0x2BF JUMPI PUSH1 0x40 MLOAD PUSH32 0x8C379A000000000000000000000000000000000000000000000000000000000 DUP2 MSTORE PUSH1 0x4 ADD PUSH2 0x2B6 SWAP1 PUSH2 0xD0F JUMP JUMPDEST PUSH1 0x40 MLOAD DUP1 SWAP2 SUB SWAP1 REVERT JUMPDEST PUSH1 0x0 DUP5 SWAP1 POP DUP1 PUSH20 0xFFFFFFFFFFFFFFFFFFFFFFFFFFFFFFFFFFFFFFFF AND PUSH4 0x23B872DD CALLER ADDRESS DUP8 PUSH1 0x40 MLOAD DUP5 PUSH4 0xFFFFFFFF AND PUSH1 0xE0 SHL DUP2 MSTORE PUSH1 0x4 ADD PUSH2 0x301 SWAP4 SWAP3 SWAP2 SWAP1 PUSH2 0xD2F JUMP JUMPDEST PUSH1 0x0 PUSH1 0x40 MLOAD DUP1 DUP4 SUB DUP2 PUSH1 0x0 DUP8 DUP1 EXTCODESIZE ISZERO DUP1 ISZERO PUSH2 0x31B JUMPI PUSH1 0x0 DUP1 REVERT JUMPDEST POP GAS CALL ISZERO DUP1 ISZERO PUSH2 0x32F JUMPI RETURNDATASIZE PUSH1 0x0 DUP1 RETURNDATACOPY RETURNDATASIZE PUSH1 0x0 REVERT JUMPDEST POP POP POP POP PUSH1 0x0 PUSH1 0x2 PUSH1 0x0 PUSH1 0x1 SLOAD DUP2 MSTORE PUSH1 0x20 ADD SWAP1 DUP2 MSTORE PUSH1 0x20 ADD PUSH1 0x0 KECCAK256 SWAP1 POP DUP6 DUP2 PUSH1 0x0 ADD PUSH1 0x0 PUSH2 0x100 EXP DUP2 SLOAD DUP2 PUSH20 0xFFFFFFFFFFFFFFFFFFFFFFFFFFFFFFFFFFFFFFFF MUL NOT AND SWAP1 DUP4 PUSH20 0xFFFFFFFFFFFFFFFFFFFFFFFFFFFFFFFFFFFFFFFF AND MUL OR SWAP1 SSTORE POP DUP5 DUP2 PUSH1 0x1 ADD DUP2 SWAP1 SSTORE POP CALLER DUP2 PUSH1 0x2 ADD PUSH1 0x0 PUSH2 0x100 EXP DUP2 SLOAD DUP2 PUSH20 0xFFFFFFFFFFFFFFFFFFFFFFFFFFFFFFFFFFFFFFFF MUL NOT AND SWAP1 DUP4 PUSH20 0xFFFFFFFFFFFFFFFFFFFFFFFFFFFFFFFFFFFFFFFF AND MUL OR SWAP1 SSTORE POP DUP4 DUP2 PUSH1 0x3 ADD DUP2 SWAP1 SSTORE POP DUP3 DUP2 PUSH1 0x4 ADD DUP2 SWAP1 SSTORE POP CALLER PUSH20 0xFFFFFFFFFFFFFFFFFFFFFFFFFFFFFFFFFFFFFFFF AND DUP6 DUP8 PUSH20 0xFFFFFFFFFFFFFFFFFFFFFFFFFFFFFFFFFFFFFFFF AND PUSH32 0x6D2FE54CBC40A66EBC27386848D449A691423E6867883635FFE7B9CFA9D77E0A PUSH1 0x1 SLOAD PUSH1 0x40 MLOAD PUSH2 0x44D SWAP2 SWAP1 PUSH2 0x9EC JUMP JUMPDEST PUSH1 0x40 MLOAD DUP1 SWAP2 SUB SWAP1 LOG4 PUSH1 0x1 PUSH1 0x0 DUP2 SLOAD DUP1 SWAP3 SWAP2 SWAP1 PUSH2 0x468 SWAP1 PUSH2 0xD95 JUMP JUMPDEST SWAP2 SWAP1 POP SSTORE POP POP POP POP POP POP POP JUMP JUMPDEST PUSH1 0x0 DUP1 SLOAD SWAP1 PUSH2 0x100 EXP SWAP1 DIV PUSH20 0xFFFFFFFFFFFFFFFFFFFFFFFFFFFFFFFFFFFFFFFF AND DUP2 JUMP JUMPDEST PUSH1 0x0 PUSH1 0x2 PUSH1 0x0 DUP4 DUP2 MSTORE PUSH1 0x20 ADD SWAP1 DUP2 MSTORE PUSH1 0x20 ADD PUSH1 0x0 KECCAK256 SWAP1 POP DUP1 PUSH1 0x7 ADD PUSH1 0x0 SWAP1 SLOAD SWAP1 PUSH2 0x100 EXP SWAP1 DIV PUSH1 0xFF AND ISZERO PUSH2 0x502 JUMPI PUSH1 0x40 MLOAD PUSH32 0x8C379A000000000000000000000000000000000000000000000000000000000 DUP2 MSTORE PUSH1 0x4 ADD PUSH2 0x4F9 SWAP1 PUSH2 0xE2A JUMP JUMPDEST PUSH1 0x40 MLOAD DUP1 SWAP2 SUB SWAP1 REVERT JUMPDEST DUP1 PUSH1 0x4 ADD SLOAD NUMBER GT ISZERO PUSH2 0x549 JUMPI PUSH1 0x40 MLOAD PUSH32 0x8C379A000000000000000000000000000000000000000000000000000000000 DUP2 MSTORE PUSH1 0x4 ADD PUSH2 0x540 SWAP1 PUSH2 0xE96 JUMP JUMPDEST PUSH1 0x40 MLOAD DUP1 SWAP2 SUB SWAP1 REVERT JUMPDEST DUP1 PUSH1 0x6 ADD SLOAD CALLVALUE GT PUSH2 0x58F JUMPI PUSH1 0x40 MLOAD PUSH32 0x8C379A000000000000000000000000000000000000000000000000000000000 DUP2 MSTORE PUSH1 0x4 ADD PUSH2 0x586 SWAP1 PUSH2 0xF28 JUMP JUMPDEST PUSH1 0x40 MLOAD DUP1 SWAP2 SUB SWAP1 REVERT JUMPDEST PUSH1 0x0 PUSH20 0xFFFFFFFFFFFFFFFFFFFFFFFFFFFFFFFFFFFFFFFF AND DUP2 PUSH1 0x5 ADD PUSH1 0x0 SWAP1 SLOAD SWAP1 PUSH2 0x100 EXP SWAP1 DIV PUSH20 0xFFFFFFFFFFFFFFFFFFFFFFFFFFFFFFFFFFFFFFFF AND PUSH20 0xFFFFFFFFFFFFFFFFFFFFFFFFFFFFFFFFFFFFFFFF AND EQ PUSH2 0x657 JUMPI DUP1 PUSH1 0x5 ADD PUSH1 0x0 SWAP1 SLOAD SWAP1 PUSH2 0x100 EXP SWAP1 DIV PUSH20 0xFFFFFFFFFFFFFFFFFFFFFFFFFFFFFFFFFFFFFFFF AND PUSH20 0xFFFFFFFFFFFFFFFFFFFFFFFFFFFFFFFFFFFFFFFF AND PUSH2 0x8FC DUP3 PUSH1 0x6 ADD SLOAD SWAP1 DUP2 ISZERO MUL SWAP1 PUSH1 0x40 MLOAD PUSH1 0x0 PUSH1 0x40 MLOAD DUP1 DUP4 SUB DUP2 DUP6 DUP9 DUP9 CALL SWAP4 POP POP POP POP ISZERO DUP1 ISZERO PUSH2 0x655 JUMPI RETURNDATASIZE PUSH1 0x0 DUP1 RETURNDATACOPY RETURNDATASIZE PUSH1 0x0 REVERT JUMPDEST POP JUMPDEST CALLER DUP2 PUSH1 0x5 ADD PUSH1 0x0 PUSH2 0x100 EXP DUP2 SLOAD DUP2 PUSH20 0xFFFFFFFFFFFFFFFFFFFFFFFFFFFFFFFFFFFFFFFF MUL NOT AND SWAP1 DUP4 PUSH20 0xFFFFFFFFFFFFFFFFFFFFFFFFFFFFFFFFFFFFFFFF AND MUL OR SWAP1 SSTORE POP CALLVALUE DUP2 PUSH1 0x6 ADD DUP2 SWAP1 SSTORE POP CALLER PUSH20 0xFFFFFFFFFFFFFFFFFFFFFFFFFFFFFFFFFFFFFFFF AND PUSH32 0xE54EFF26401BF69B81B26F60BD85EF47F5D85275C1D268D84F68D6897431C47 DUP4 CALLVALUE PUSH1 0x40 MLOAD PUSH2 0x6EB SWAP3 SWAP2 SWAP1 PUSH2 0xF48 JUMP JUMPDEST PUSH1 0x40 MLOAD DUP1 SWAP2 SUB SWAP1 LOG2 POP POP JUMP JUMPDEST PUSH1 0x0 PUSH1 0x2 PUSH1 0x0 DUP4 DUP2 MSTORE PUSH1 0x20 ADD SWAP1 DUP2 MSTORE PUSH1 0x20 ADD PUSH1 0x0 KECCAK256 SWAP1 POP DUP1 PUSH1 0x7 ADD PUSH1 0x0 SWAP1 SLOAD SWAP1 PUSH2 0x100 EXP SWAP1 DIV PUSH1 0xFF AND ISZERO PUSH2 0x760 JUMPI PUSH1 0x40 MLOAD PUSH32 0x8C379A000000000000000000000000000000000000000000000000000000000 DUP2 MSTORE PUSH1 0x4 ADD PUSH2 0x757 SWAP1 PUSH2 0xE96 JUMP JUMPDEST PUSH1 0x40 MLOAD DUP1 SWAP2 SUB SWAP1 REVERT JUMPDEST DUP1 PUSH1 0x4 ADD SLOAD NUMBER GT PUSH2 0x7A6 JUMPI PUSH1 0x40 MLOAD PUSH32 0x8C379A000000000000000000000000000000000000000000000000000000000 DUP2 MSTORE PUSH1 0x4 ADD PUSH2 0x79D SWAP1 PUSH2 0xFBD JUMP JUMPDEST PUSH1 0x40 MLOAD DUP1 SWAP2 SUB SWAP1 REVERT JUMPDEST PUSH1 0x1 DUP2 PUSH1 0x7 ADD PUSH1 0x0 PUSH2 0x100 EXP DUP2 SLOAD DUP2 PUSH1 0xFF MUL NOT AND SWAP1 DUP4 ISZERO ISZERO MUL OR SWAP1 SSTORE POP PUSH1 0x0 DUP2 PUSH1 0x0 ADD PUSH1 0x0 SWAP1 SLOAD SWAP1 PUSH2 0x100 EXP SWAP1 DIV PUSH20 0xFFFFFFFFFFFFFFFFFFFFFFFFFFFFFFFFFFFFFFFF AND SWAP1 POP DUP1 PUSH20 0xFFFFFFFFFFFFFFFFFFFFFFFFFFFFFFFFFFFFFFFF AND PUSH4 0x23B872DD ADDRESS DUP5 PUSH1 0x5 ADD PUSH1 0x0 SWAP1 SLOAD SWAP1 PUSH2 0x100 EXP SWAP1 DIV PUSH20 0xFFFFFFFFFFFFFFFFFFFFFFFFFFFFFFFFFFFFFFFF AND DUP6 PUSH1 0x1 ADD SLOAD PUSH1 0x40 MLOAD DUP5 PUSH4 0xFFFFFFFF AND PUSH1 0xE0 SHL DUP2 MSTORE PUSH1 0x4 ADD PUSH2 0x851 SWAP4 SWAP3 SWAP2 SWAP1 PUSH2 0x103C JUMP JUMPDEST PUSH1 0x0 PUSH1 0x40 MLOAD DUP1 DUP4 SUB DUP2 PUSH1 0x0 DUP8 DUP1 EXTCODESIZE ISZERO DUP1 ISZERO PUSH2 0x86B JUMPI PUSH1 0x0 DUP1 REVERT JUMPDEST POP GAS CALL ISZERO DUP1 ISZERO PUSH2 0x87F JUMPI RETURNDATASIZE PUSH1 0x0 DUP1 RETURNDATACOPY RETURNDATASIZE PUSH1 0x0 REVERT JUMPDEST POP POP POP POP DUP2 PUSH1 0x6 ADD SLOAD DUP3 PUSH1 0x5 ADD PUSH1 0x0 SWAP1 SLOAD SWAP1 PUSH2 0x100 EXP SWAP1 DIV PUSH20 0xFFFFFFFFFFFFFFFFFFFFFFFFFFFFFFFFFFFFFFFF AND PUSH20 0xFFFFFFFFFFFFFFFFFFFFFFFFFFFFFFFFFFFFFFFF AND PUSH32 0xD2AA34A4FDBBC6DFF6A3E56F46E0F3AE2A31D7785FF3487AA5C95C642ACEA501 DUP6 PUSH1 0x40 MLOAD PUSH2 0x8F2 SWAP2 SWAP1 PUSH2 0x9EC JUMP JUMPDEST PUSH1 0x40 MLOAD DUP1 SWAP2 SUB SWAP1 LOG3 POP POP POP JUMP JUMPDEST PUSH1 0x0 DUP1 PUSH1 0x0 DUP1 PUSH1 0x0 DUP1 PUSH1 0x0 DUP1 PUSH1 0x0 PUSH1 0x2 PUSH1 0x0 DUP12 DUP2 MSTORE PUSH1 0x20 ADD SWAP1 DUP2 MSTORE PUSH1 0x20 ADD PUSH1 0x0 KECCAK256 SWAP1 POP DUP1 PUSH1 0x0 ADD PUSH1 0x0 SWAP1 SLOAD SWAP1 PUSH2 0x100 EXP SWAP1 DIV PUSH20 0xFFFFFFFFFFFFFFFFFFFFFFFFFFFFFFFFFFFFFFFF AND DUP2 PUSH1 0x1 ADD SLOAD DUP3 PUSH1 0x2 ADD PUSH1 0x0 SWAP1 SLOAD SWAP1 PUSH2 0x100 EXP SWAP1 DIV PUSH20 0xFFFFFFFFFFFFFFFFFFFFFFFFFFFFFFFFFFFFFFFF AND DUP4 PUSH1 0x3 ADD SLOAD DUP5 PUSH1 0x4 ADD SLOAD DUP6 PUSH1 0x5 ADD PUSH1 0x0 SWAP1 SLOAD SWAP1 PUSH2 0x100 EXP SWAP1 DIV PUSH20 0xFFFFFFFFFFFFFFFFFFFFFFFFFFFFFFFFFFFFFFFF AND DUP7 PUSH1 0x6 ADD SLOAD DUP8 PUSH1 0x7 ADD PUSH1 0x0 SWAP1 SLOAD SWAP1 PUSH2 0x100 EXP SWAP1 DIV PUSH1 0xFF AND SWAP9 POP SWAP9 POP SWAP9 POP SWAP9 POP SWAP9 POP SWAP9 POP SWAP9 POP SWAP9 POP POP SWAP2 SWAP4 SWAP6 SWAP8 POP SWAP2 SWAP4 SWAP6 SWAP8 JUMP JUMPDEST PUSH1 0x0 DUP2 SWAP1 POP SWAP2 SWAP1 POP JUMP JUMPDEST PUSH2 0x9E6 DUP2 PUSH2 0x9D3 JUMP JUMPDEST DUP3 MSTORE POP POP JUMP JUMPDEST PUSH1 0x0 PUSH1 0x20 DUP3 ADD SWAP1 POP PUSH2 0xA01 PUSH1 0x0 DUP4 ADD DUP5 PUSH2 0x9DD JUMP JUMPDEST SWAP3 SWAP2 POP POP JUMP JUMPDEST PUSH1 0x0 DUP1 REVERT JUMPDEST PUSH2 0xA15 DUP2 PUSH2 0x9D3 JUMP JUMPDEST DUP2 EQ PUSH2 0xA20 JUMPI PUSH1 0x0 DUP1 REVERT JUMPDEST POP JUMP JUMPDEST PUSH1 0x0 DUP2 CALLDATALOAD SWAP1 POP PUSH2 0xA32 DUP2 PUSH2 0xA0C JUMP JUMPDEST SWAP3 SWAP2 POP POP JUMP JUMPDEST PUSH1 0x0 PUSH1 0x20 DUP3 DUP5 SUB SLT ISZERO PUSH2 0xA4E JUMPI PUSH2 0xA4D PUSH2 0xA07 JUMP JUMPDEST JUMPDEST PUSH1 0x0 PUSH2 0xA5C DUP5 DUP3 DUP6 ADD PUSH2 0xA23 JUMP JUMPDEST SWAP2 POP POP SWAP3 SWAP2 POP POP JUMP JUMPDEST PUSH1 0x0 PUSH20 0xFFFFFFFFFFFFFFFFFFFFFFFFFFFFFFFFFFFFFFFF DUP3 AND SWAP1 POP SWAP2 SWAP1 POP JUMP JUMPDEST PUSH1 0x0 PUSH2 0xA90 DUP3 PUSH2 0xA65 JUMP JUMPDEST SWAP1 POP SWAP2 SWAP1 POP JUMP JUMPDEST PUSH2 0xAA0 DUP2 PUSH2 0xA85 JUMP JUMPDEST DUP3 MSTORE POP POP JUMP JUMPDEST PUSH1 0x0 PUSH2 0xAB1 DUP3 PUSH2 0xA65 JUMP JUMPDEST SWAP1 POP SWAP2 SWAP1 POP JUMP JUMPDEST PUSH2 0xAC1 DUP2 PUSH2 0xAA6 JUMP JUMPDEST DUP3 MSTORE POP POP JUMP JUMPDEST PUSH1 0x0 DUP2 ISZERO ISZERO SWAP1 POP SWAP2 SWAP1 POP JUMP JUMPDEST PUSH2 0xADC DUP2 PUSH2 0xAC7 JUMP JUMPDEST DUP3 MSTORE POP POP JUMP JUMPDEST PUSH1 0x0 PUSH2 0x100 DUP3 ADD SWAP1 POP PUSH2 0xAF8 PUSH1 0x0 DUP4 ADD DUP12 PUSH2 0xA97 JUMP JUMPDEST PUSH2 0xB05 PUSH1 0x20 DUP4 ADD DUP11 PUSH2 0x9DD JUMP JUMPDEST PUSH2 0xB12 PUSH1 0x40 DUP4 ADD DUP10 PUSH2 0xAB8 JUMP JUMPDEST PUSH2 0xB1F PUSH1 0x60 DUP4 ADD DUP9 PUSH2 0x9DD JUMP JUMPDEST PUSH2 0xB2C PUSH1 0x80 DUP4 ADD DUP8 PUSH2 0x9DD JUMP JUMPDEST PUSH2 0xB39 PUSH1 0xA0 DUP4 ADD DUP7 PUSH2 0xAB8 JUMP JUMPDEST PUSH2 0xB46 PUSH1 0xC0 DUP4 ADD DUP6 PUSH2 0x9DD JUMP JUMPDEST PUSH2 0xB53 PUSH1 0xE0 DUP4 ADD DUP5 PUSH2 0xAD3 JUMP JUMPDEST SWAP10 SWAP9 POP POP POP POP POP POP POP POP POP JUMP JUMPDEST PUSH2 0xB69 DUP2 PUSH2 0xA85 JUMP JUMPDEST DUP2 EQ PUSH2 0xB74 JUMPI PUSH1 0x0 DUP1 REVERT JUMPDEST POP JUMP JUMPDEST PUSH1 0x0 DUP2 CALLDATALOAD SWAP1 POP PUSH2 0xB86 DUP2 PUSH2 0xB60 JUMP JUMPDEST SWAP3 SWAP2 POP POP JUMP JUMPDEST PUSH1 0x0 DUP1 PUSH1 0x0 DUP1 PUSH1 0x80 DUP6 DUP8 SUB SLT ISZERO PUSH2 0xBA6 JUMPI PUSH2 0xBA5 PUSH2 0xA07 JUMP JUMPDEST JUMPDEST PUSH1 0x0 PUSH2 0xBB4 DUP8 DUP3 DUP9 ADD PUSH2 0xB77 JUMP JUMPDEST SWAP5 POP POP PUSH1 0x20 PUSH2 0xBC5 DUP8 DUP3 DUP9 ADD PUSH2 0xA23 JUMP JUMPDEST SWAP4 POP POP PUSH1 0x40 PUSH2 0xBD6 DUP8 DUP3 DUP9 ADD PUSH2 0xA23 JUMP JUMPDEST SWAP3 POP POP PUSH1 0x60 PUSH2 0xBE7 DUP8 DUP3 DUP9 ADD PUSH2 0xA23 JUMP JUMPDEST SWAP2 POP POP SWAP3 SWAP6 SWAP2 SWAP5 POP SWAP3 POP JUMP JUMPDEST PUSH1 0x0 PUSH1 0x20 DUP3 ADD SWAP1 POP PUSH2 0xC08 PUSH1 0x0 DUP4 ADD DUP5 PUSH2 0xA97 JUMP JUMPDEST SWAP3 SWAP2 POP POP JUMP JUMPDEST PUSH1 0x0 PUSH2 0x100 DUP3 ADD SWAP1 POP PUSH2 0xC24 PUSH1 0x0 DUP4 ADD DUP12 PUSH2 0xA97 JUMP JUMPDEST PUSH2 0xC31 PUSH1 0x20 DUP4 ADD DUP11 PUSH2 0x9DD JUMP JUMPDEST PUSH2 0xC3E PUSH1 0x40 DUP4 ADD DUP10 PUSH2 0xA97 JUMP JUMPDEST PUSH2 0xC4B PUSH1 0x60 DUP4 ADD DUP9 PUSH2 0x9DD JUMP JUMPDEST PUSH2 0xC58 PUSH1 0x80 DUP4 ADD DUP8 PUSH2 0x9DD JUMP JUMPDEST PUSH2 0xC65 PUSH1 0xA0 DUP4 ADD DUP7 PUSH2 0xA97 JUMP JUMPDEST PUSH2 0xC72 PUSH1 0xC0 DUP4 ADD DUP6 PUSH2 0x9DD JUMP JUMPDEST PUSH2 0xC7F PUSH1 0xE0 DUP4 ADD DUP5 PUSH2 0xAD3 JUMP JUMPDEST SWAP10 SWAP9 POP POP POP POP POP POP POP POP POP JUMP JUMPDEST PUSH1 0x0 DUP3 DUP3 MSTORE PUSH1 0x20 DUP3 ADD SWAP1 POP SWAP3 SWAP2 POP POP JUMP JUMPDEST PUSH32 0x5374617274207072696365206D7573742062652067726561746572207468616E PUSH1 0x0 DUP3 ADD MSTORE PUSH32 0x207A65726F000000000000000000000000000000000000000000000000000000 PUSH1 0x20 DUP3 ADD MSTORE POP JUMP JUMPDEST PUSH1 0x0 PUSH2 0xCF9 PUSH1 0x25 DUP4 PUSH2 0xC8C JUMP JUMPDEST SWAP2 POP PUSH2 0xD04 DUP3 PUSH2 0xC9D JUMP JUMPDEST PUSH1 0x40 DUP3 ADD SWAP1 POP SWAP2 SWAP1 POP JUMP JUMPDEST PUSH1 0x0 PUSH1 0x20 DUP3 ADD SWAP1 POP DUP2 DUP2 SUB PUSH1 0x0 DUP4 ADD MSTORE PUSH2 0xD28 DUP2 PUSH2 0xCEC JUMP JUMPDEST SWAP1 POP SWAP2 SWAP1 POP JUMP JUMPDEST PUSH1 0x0 PUSH1 0x60 DUP3 ADD SWAP1 POP PUSH2 0xD44 PUSH1 0x0 DUP4 ADD DUP7 PUSH2 0xA97 JUMP JUMPDEST PUSH2 0xD51 PUSH1 0x20 DUP4 ADD DUP6 PUSH2 0xA97 JUMP JUMPDEST PUSH2 0xD5E PUSH1 0x40 DUP4 ADD DUP5 PUSH2 0x9DD JUMP JUMPDEST SWAP5 SWAP4 POP POP POP POP JUMP JUMPDEST PUSH32 0x4E487B7100000000000000000000000000000000000000000000000000000000 PUSH1 0x0 MSTORE PUSH1 0x11 PUSH1 0x4 MSTORE PUSH1 0x24 PUSH1 0x0 REVERT JUMPDEST PUSH1 0x0 PUSH2 0xDA0 DUP3 PUSH2 0x9D3 JUMP JUMPDEST SWAP2 POP PUSH32 0xFFFFFFFFFFFFFFFFFFFFFFFFFFFFFFFFFFFFFFFFFFFFFFFFFFFFFFFFFFFFFFFF DUP3 EQ ISZERO PUSH2 0xDD3 JUMPI PUSH2 0xDD2 PUSH2 0xD66 JUMP JUMPDEST JUMPDEST PUSH1 0x1 DUP3 ADD SWAP1 POP SWAP2 SWAP1 POP JUMP JUMPDEST PUSH32 0x5468652061756374696F6E2068617320656E6465640000000000000000000000 PUSH1 0x0 DUP3 ADD MSTORE POP JUMP JUMPDEST PUSH1 0x0 PUSH2 0xE14 PUSH1 0x15 DUP4 PUSH2 0xC8C JUMP JUMPDEST SWAP2 POP PUSH2 0xE1F DUP3 PUSH2 0xDDE JUMP JUMPDEST PUSH1 0x20 DUP3 ADD SWAP1 POP SWAP2 SWAP1 POP JUMP JUMPDEST PUSH1 0x0 PUSH1 0x20 DUP3 ADD SWAP1 POP DUP2 DUP2 SUB PUSH1 0x0 DUP4 ADD MSTORE PUSH2 0xE43 DUP2 PUSH2 0xE07 JUMP JUMPDEST SWAP1 POP SWAP2 SWAP1 POP JUMP JUMPDEST PUSH32 0x5468652061756374696F6E2068617320616C726561647920656E646564000000 PUSH1 0x0 DUP3 ADD MSTORE POP JUMP JUMPDEST PUSH1 0x0 PUSH2 0xE80 PUSH1 0x1D DUP4 PUSH2 0xC8C JUMP JUMPDEST SWAP2 POP PUSH2 0xE8B DUP3 PUSH2 0xE4A JUMP JUMPDEST PUSH1 0x20 DUP3 ADD SWAP1 POP SWAP2 SWAP1 POP JUMP JUMPDEST PUSH1 0x0 PUSH1 0x20 DUP3 ADD SWAP1 POP DUP2 DUP2 SUB PUSH1 0x0 DUP4 ADD MSTORE PUSH2 0xEAF DUP2 PUSH2 0xE73 JUMP JUMPDEST SWAP1 POP SWAP2 SWAP1 POP JUMP JUMPDEST PUSH32 0x42696420616D6F756E74206D75737420626520686967686572207468616E2074 PUSH1 0x0 DUP3 ADD MSTORE PUSH32 0x68652063757272656E7420686967686573742062696400000000000000000000 PUSH1 0x20 DUP3 ADD MSTORE POP JUMP JUMPDEST PUSH1 0x0 PUSH2 0xF12 PUSH1 0x36 DUP4 PUSH2 0xC8C JUMP JUMPDEST SWAP2 POP PUSH2 0xF1D DUP3 PUSH2 0xEB6 JUMP JUMPDEST PUSH1 0x40 DUP3 ADD SWAP1 POP SWAP2 SWAP1 POP JUMP JUMPDEST PUSH1 0x0 PUSH1 0x20 DUP3 ADD SWAP1 POP DUP2 DUP2 SUB PUSH1 0x0 DUP4 ADD MSTORE PUSH2 0xF41 DUP2 PUSH2 0xF05 JUMP JUMPDEST SWAP1 POP SWAP2 SWAP1 POP JUMP JUMPDEST PUSH1 0x0 PUSH1 0x40 DUP3 ADD SWAP1 POP PUSH2 0xF5D PUSH1 0x0 DUP4 ADD DUP6 PUSH2 0x9DD JUMP JUMPDEST PUSH2 0xF6A PUSH1 0x20 DUP4 ADD DUP5 PUSH2 0x9DD JUMP JUMPDEST SWAP4 SWAP3 POP POP POP JUMP JUMPDEST PUSH32 0x5468652061756374696F6E20686173206E6F7420656E64656420796574000000 PUSH1 0x0 DUP3 ADD MSTORE POP JUMP JUMPDEST PUSH1 0x0 PUSH2 0xFA7 PUSH1 0x1D DUP4 PUSH2 0xC8C JUMP JUMPDEST SWAP2 POP PUSH2 0xFB2 DUP3 PUSH2 0xF71 JUMP JUMPDEST PUSH1 0x20 DUP3 ADD SWAP1 POP SWAP2 SWAP1 POP JUMP JUMPDEST PUSH1 0x0 PUSH1 0x20 DUP3 ADD SWAP1 POP DUP2 DUP2 SUB PUSH1 0x0 DUP4 ADD MSTORE PUSH2 0xFD6 DUP2 PUSH2 0xF9A JUMP JUMPDEST SWAP1 POP SWAP2 SWAP1 POP JUMP JUMPDEST PUSH1 0x0 DUP2 SWAP1 POP SWAP2 SWAP1 POP JUMP JUMPDEST PUSH1 0x0 PUSH2 0x1002 PUSH2 0xFFD PUSH2 0xFF8 DUP5 PUSH2 0xA65 JUMP JUMPDEST PUSH2 0xFDD JUMP JUMPDEST PUSH2 0xA65 JUMP JUMPDEST SWAP1 POP SWAP2 SWAP1 POP JUMP JUMPDEST PUSH1 0x0 PUSH2 0x1014 DUP3 PUSH2 0xFE7 JUMP JUMPDEST SWAP1 POP SWAP2 SWAP1 POP JUMP JUMPDEST PUSH1 0x0 PUSH2 0x1026 DUP3 PUSH2 0x1009 JUMP JUMPDEST SWAP1 POP SWAP2 SWAP1 POP JUMP JUMPDEST PUSH2 0x1036 DUP2 PUSH2 0x101B JUMP JUMPDEST DUP3 MSTORE POP POP JUMP JUMPDEST PUSH1 0x0 PUSH1 0x60 DUP3 ADD SWAP1 POP PUSH2 0x1051 PUSH1 0x0 DUP4 ADD DUP7 PUSH2 0xA97 JUMP JUMPDEST PUSH2 0x105E PUSH1 0x20 DUP4 ADD DUP6 PUSH2 0x102D JUMP JUMPDEST PUSH2 0x106B PUSH1 0x40 DUP4 ADD DUP5 PUSH2 0x9DD JUMP JUMPDEST SWAP5 SWAP4 POP POP POP POP JUMP INVALID LOG2 PUSH5 0x6970667358 0x22 SLT KECCAK256 0x5D 0x5C 0xD8 0xE6 ISZERO 0xD4 DUP10 CREATE 0xEB CALLDATASIZE PUSH2 0x85A8 0xEE LOG0 0xEB 0xB9 0x4F 0xD1 0xE3 0xF7 SSTORE 0x5C STOP PUSH31 0xA7CF0165050F6C64736F6C6343000809003300000000000000000000000000 "
				},
				"gasEstimates": {
					"creation": {
						"codeDepositCost": "853000",
						"executionCost": "47270",
						"totalCost": "900270"
					},
					"external": {
						"auctionId()": "2430",
						"auctions(uint256)": "infinite",
						"createAuction(address,uint256,uint256,uint256)": "infinite",
						"endAuction(uint256)": "infinite",
						"getAuctionDetails(uint256)": "infinite",
						"owner()": "2511",
						"placeBid(uint256)": "infinite"
					}
				},
				"methodIdentifiers": {
					"auctionId()": "10782f8f",
					"auctions(uint256)": "571a26a0",
					"createAuction(address,uint256,uint256,uint256)": "61beb1d7",
					"endAuction(uint256)": "b9a2de3a",
					"getAuctionDetails(uint256)": "f20e5e35",
					"owner()": "8da5cb5b",
					"placeBid(uint256)": "9979ef45"
				}
			},
			"storageLayout": {
				"storage": [
					{
						"astId": 132,
						"contract": "Contracts/NFTAuction.sol:NFTAuction",
						"label": "owner",
						"offset": 0,
						"slot": "0",
						"type": "t_address"
					},
					{
						"astId": 134,
						"contract": "Contracts/NFTAuction.sol:NFTAuction",
						"label": "auctionId",
						"offset": 0,
						"slot": "1",
						"type": "t_uint256"
					},
					{
						"astId": 139,
						"contract": "Contracts/NFTAuction.sol:NFTAuction",
						"label": "auctions",
						"offset": 0,
						"slot": "2",
						"type": "t_mapping(t_uint256,t_struct(Auction)156_storage)"
					}
				],
				"types": {
					"t_address": {
						"encoding": "inplace",
						"label": "address",
						"numberOfBytes": "20"
					},
					"t_address_payable": {
						"encoding": "inplace",
						"label": "address payable",
						"numberOfBytes": "20"
					},
					"t_bool": {
						"encoding": "inplace",
						"label": "bool",
						"numberOfBytes": "1"
					},
					"t_mapping(t_uint256,t_struct(Auction)156_storage)": {
						"encoding": "mapping",
						"key": "t_uint256",
						"label": "mapping(uint256 => struct NFTAuction.Auction)",
						"numberOfBytes": "32",
						"value": "t_struct(Auction)156_storage"
					},
					"t_struct(Auction)156_storage": {
						"encoding": "inplace",
						"label": "struct NFTAuction.Auction",
						"members": [
							{
								"astId": 141,
								"contract": "Contracts/NFTAuction.sol:NFTAuction",
								"label": "nftContract",
								"offset": 0,
								"slot": "0",
								"type": "t_address"
							},
							{
								"astId": 143,
								"contract": "Contracts/NFTAuction.sol:NFTAuction",
								"label": "tokenId",
								"offset": 0,
								"slot": "1",
								"type": "t_uint256"
							},
							{
								"astId": 145,
								"contract": "Contracts/NFTAuction.sol:NFTAuction",
								"label": "seller",
								"offset": 0,
								"slot": "2",
								"type": "t_address_payable"
							},
							{
								"astId": 147,
								"contract": "Contracts/NFTAuction.sol:NFTAuction",
								"label": "startPrice",
								"offset": 0,
								"slot": "3",
								"type": "t_uint256"
							},
							{
								"astId": 149,
								"contract": "Contracts/NFTAuction.sol:NFTAuction",
								"label": "endBlock",
								"offset": 0,
								"slot": "4",
								"type": "t_uint256"
							},
							{
								"astId": 151,
								"contract": "Contracts/NFTAuction.sol:NFTAuction",
								"label": "highestBidder",
								"offset": 0,
								"slot": "5",
								"type": "t_address_payable"
							},
							{
								"astId": 153,
								"contract": "Contracts/NFTAuction.sol:NFTAuction",
								"label": "highestBid",
								"offset": 0,
								"slot": "6",
								"type": "t_uint256"
							},
							{
								"astId": 155,
								"contract": "Contracts/NFTAuction.sol:NFTAuction",
								"label": "ended",
								"offset": 0,
								"slot": "7",
								"type": "t_bool"
							}
						],
						"numberOfBytes": "256"
					},
					"t_uint256": {
						"encoding": "inplace",
						"label": "uint256",
						"numberOfBytes": "32"
					}
				}
			},
			"userdoc": {
				"kind": "user",
				"methods": {},
				"version": 1
			}
		}
	}
}